:020000040800F2
:10000000005000200D1700089D1400089F140008E0
:10001000A1140008A3140008A514000800000000A3
:10002000000000000000000000000000A71400080D
:10003000A914000800000000AB140008AD1400086B
:1000400055170008551700085517000855170008E0
:1000500055170008551700085517000855170008D0
:1000600055170008551700085517000855170008C0
:1000700055170008551700085517000855170008B0
:1000800055170008551700085517000855170008A0
:100090005517000855170008551700085517000890
:1000A0005517000855170008551700085517000880
:1000B0005517000855170008551700085517000870
:1000C0005517000855170008551700085517000860
:1000D0005517000855170008551700085517000850
:1000E00055170008551700085517000800000000B4
:1000F0000000000000000000000000000000000000
:0C01000000000000000000005FF808F1A3
:1001100081F0004102E000BF83F0004330B54FEAB8
:1001200041044FEA430594EA050F08BF90EA020F25
:100130001FBF54EA000C55EA020C7FEA645C7FEAB8
:10014000655C00F0E2804FEA5454D4EB5555B8BFDB
:100150006D420CDD2C4480EA020281EA030382EA4C
:10016000000083EA010180EA020281EA0303362DDE
:1001700088BF30BD11F0004F4FEA01314FF4801CB1
:100180004CEA113102D0404261EB410113F0004FC3
:100190004FEA03334CEA133302D0524263EB43037A
:1001A00094EA050F00F0A780A4F10104D5F1200E18
:1001B0000DDB02FA0EFC22FA05F2801841F1000173
:1001C00003FA0EF2801843FA05F359410EE0A5F147
:1001D00020050EF1200E012A03FA0EFC28BF4CF078
:1001E000020C43FA05F3C01851EBE37101F000452E
:1001F00007D54FF0000EDCF1000C7EEB00006EEB3B
:100200000101B1F5801F1BD3B1F5001F0CD34908C4
:100210005FEA30004FEA3C0C04F101044FEA44521B
:1002200012F5800F80F09A80BCF1004F08BF5FEAA2
:10023000500C50F1000041EB045141EA050130BD82
:100240005FEA4C0C404141EB0101013C28BFB1F594
:10025000801FE9D291F0000F04BF01460020B1FADF
:1002600081F308BF2033A3F10B03B3F120020CDAB2
:100270000C3208DD02F1140CC2F10C0201FA0CF090
:1002800021FA02F10CE002F11402D8BFC2F1200CF5
:1002900001FA02F120FA0CFCDCBF41EA0C019040AB
:1002A000E41AA2BF01EB0451294330BD6FEA0404F4
:1002B0001F3C1CDA0C340EDC04F11404C4F12002DF
:1002C00020FA04F001FA02F340EA030021FA04F3F1
:1002D00045EA030130BDC4F10C04C4F1200220FA48
:1002E00002F001FA04F340EA0300294630BD21FA86
:1002F00004F0294630BD94F0000F83F4801306BF4C
:1003000081F480110134013D4EE77FEA645C18BF3F
:100310007FEA655C29D094EA050F08BF90EA020FD6
:1003200005D054EA000C04BF1946104630BD91EACE
:10033000030F1EBF0021002030BD5FEA545C05D1D1
:100340004000494128BF41F0004130BD14F5800410
:100350003CBF01F5801130BD01F0004545F0FE4184
:1003600041F470014FF0000030BD7FEA645C1ABFB9
:10037000194610467FEA655C1CBF0B46024650EAF0
:10038000013406BF52EA033591EA030F41F400211C
:1003900030BD00BF90F0000F04BF0021704730B5A2
:1003A0004FF4806404F132044FF000054FF0000177
:1003B00050E700BF90F0000F04BF0021704730B538
:1003C0004FF4806404F1320410F0004548BF40420D
:1003D0004FF000013EE700BF42004FEAE2014FEA62
:1003E00031014FEA02701FBF12F07F4393F07F4F3D
:1003F00081F06051704732F07F4208BF704793F040
:100400007F4F04BF41F40021704730B54FF4607452
:1004100001F0004521F000411CE700BF50EA010255
:1004200008BF704730B54FF000050AE050EA0102FE
:1004300008BF704730B511F0004502D5404261EB6E
:1004400041014FF4806404F132045FEA915C3FF4AF
:10045000D8AE4FF003025FEADC0C18BF03325FEA4C
:10046000DC0C18BF033202EBDC02C2F1200300FAFD
:1004700003FC20FA02F001FA03FE40EA0E0021FA22
:1004800002F11444BDE600BF4FF0FF3C06E000BFA0
:100490004FF0010C02E000BF4FF0010C4DF804CD0D
:1004A0004FEA410C7FEA6C5C4FEA430C18BF7FEACD
:1004B0006C5C1BD001B050EA410C0CBF52EA430CFB
:1004C00091EA030F02BF90EA020F0020704710F17B
:1004D000000F91EA030F58BF994208BF90422CBF0A
:1004E000D8176FEAE37040F0010070474FEA410C03
:1004F0007FEA6C5C02D150EA013C07D14FEA430C21
:100500007FEA6C5CD6D152EA033CD3D05DF8040B91
:10051000704700BF8446104662468C4619466346C3
:1005200000E000BF01B5FFF7B7FF002848BF10F19A
:10053000000F01BD4DF808EDFFF7F4FF0CBF0120DF
:1005400000205DF808FB00BF4DF808EDFFF7EAFF5B
:1005500034BF012000205DF808FB00BF4DF808ED16
:10056000FFF7E0FF94BF012000205DF808FB00BF0B
:100570004DF808EDFFF7CEFF94BF012000205DF895
:1005800008FB00BF4DF808EDFFF7C4FF34BF0120A2
:1005900000205DF808FB00BF4FEA4102B2F1E043E2
:1005A00024BFB3F5001CDCF1FE5C0DD901F0004C5A
:1005B0004FEAC0024CEA5070B2F1004F40EB8300AA
:1005C00008BF20F00100704711F0804F21D113F1D6
:1005D0003872BCBF01F00040704741F480114FEA0F
:1005E0005252C2F11802C2F1200C10FA0CF320FA98
:1005F00002F018BF40F001004FEAC1234FEAD323B5
:1006000003FA0CFC40EA0C0023FA02F34FEA43031E
:10061000CCE77FEA625307D150EA01331EBF4FF0A7
:10062000FE4040F44000704701F0004040F0FE40C2
:1006300040F40000704700BF80F0004002E000BFBF
:1006400081F0004142001FBF5FEA410392EA030FBD
:100650007FEA226C7FEA236C6AD04FEA1262D2EB07
:100660001363C1BFD218414048404140B8BF5B420C
:10067000192B88BF704710F0004F40F4000020F0A5
:100680007F4018BF404211F0004F41F4000121F0BB
:100690007F4118BF494292EA030F3FD0A2F1010205
:1006A00041FA03FC10EB0C00C3F1200301FA03F143
:1006B00000F0004302D5494260EB4000B0F5000F66
:1006C00013D3B0F1807F06D340084FEA310102F125
:1006D0000102FE2A51D2B1F1004F40EBC25008BFD7
:1006E00020F0010040EA03007047490040EB0000A1
:1006F000013A28BFB0F5000FEDD2B0FA80FCACF1A2
:10070000080CB2EB0C0200FA0CF0AABF00EBC250CE
:1007100052421843BCBFD0401843704792F0000FBC
:1007200081F4000106BF80F400000132013BB5E70F
:100730004FEA41037FEA226C18BF7FEA236C21D085
:1007400092EA030F04D092F0000F08BF08467047EA
:1007500090EA010F1CBF0020704712F07F4F04D1B8
:10076000400028BF40F00040704712F100723CBFCB
:1007700000F50000704700F0004343F0FE4040F4F5
:10078000000070477FEA226216BF08467FEA2363B3
:100790000146420206BF5FEA412390EA010F40F49E
:1007A000800070474FF0000304E000BF10F00043EA
:1007B00048BF40425FEA000C08BF704743F09643D1
:1007C00001464FF000001CE050EA010208BF7047EC
:1007D0004FF000030AE000BF50EA010208BF704773
:1007E00011F0004302D5404261EB41015FEA010C88
:1007F00002BF84460146002043F0B64308BFA3F180
:100800008053A3F50003BCFA8CF2083AA3EBC25361
:1008100010DB01FA02FC634400FA02FCC2F1200280
:10082000BCF1004F20FA02F243EB020008BF20F0B7
:100830000100704702F1200201FA02FCC2F120021D
:1008400050EA4C0021FA02F243EB020008BF20EA12
:10085000DC7070474FF0FF0C1CEAD0521EBF1CEA40
:10086000D15392EA0C0F93EA0C0F6FD01A4480EA2E
:10087000010C400218BF5FEA41211ED04FF0006317
:1008800043EA501043EA5111A0FB01310CF0004043
:10089000B1F5000F3EBF490041EAD3715B0040EA69
:1008A000010062F17F02FD2A1DD8B3F1004F40EB39
:1008B000C25008BF20F00100704790F0000F0CF00C
:1008C000004C08BF49024CEA502040EA51207F3AD0
:1008D000C2BFD2F1FF0340EAC250704740F40000AB
:1008E0004FF00003013A5DDC12F1190FDCBF00F09C
:1008F00000407047C2F10002410021FA02F1C2F14A
:10090000200200FA02FC5FEA310040F1000053EAE5
:100910004C0308BF20EADC70704792F0000F00F033
:10092000004C02BF400010F4000F013AF9D040EA39
:100930000C0093F0000F01F0004C02BF490011F4CD
:10094000000F013BF9D041EA0C018FE70CEAD153CB
:1009500092EA0C0F18BF93EA0C0F0AD030F0004C4B
:1009600018BF31F0004CD8D180EA010000F00040FF
:10097000704790F0000F17BF90F0004F084691F0BD
:10098000000F91F0004F14D092EA0C0F01D14202F7
:100990000FD193EA0C0F03D14B0218BF084608D1C0
:1009A00080EA010000F0004040F0FE4040F400000A
:1009B000704740F0FE4040F4400070474FF0FF0C9D
:1009C0001CEAD0521EBF1CEAD15392EA0C0F93EAE4
:1009D0000C0F69D0A2EB030280EA010C49024FEA36
:1009E000402037D04FF0805343EA111143EA1013EF
:1009F0000CF000408B4238BF5B0042F17D024FF4A7
:100A0000000C8B4224BF5B1A40EA0C00B3EB510F81
:100A100024BFA3EB510340EA5C00B3EB910F24BF6A
:100A2000A3EB910340EA9C00B3EBD10F24BFA3EBEF
:100A3000D10340EADC001B0118BF5FEA1C1CE0D1B7
:100A4000FD2A3FF650AF8B4240EBC25008BF20F06A
:100A5000010070470CF0004C4CEA50207F32C2BFBE
:100A6000D2F1FF0340EAC250704740F400004FF05B
:100A70000003013A37E792F0000F00F0004C02BF8C
:100A8000400010F4000F013AF9D040EA0C0093F056
:100A9000000F01F0004C02BF490011F4000F013BB0
:100AA000F9D041EA0C0195E70CEAD15392EA0C0F18
:100AB00008D142027FF47DAF93EA0C0F7FF470AF50
:100AC000084676E793EA0C0F04D14B023FF44CAF93
:100AD00008466EE730F0004C18BF31F0004CCAD128
:100AE00030F000427FF45CAF31F000437FF43CAF64
:100AF0005FE700BF4FF0FF3C06E000BF4FF0010C86
:100B000002E000BF4FF0010C4DF804CD4FEA400267
:100B10004FEA41037FEA226C18BF7FEA236C11D0B1
:100B200001B052EA530C18BF90EA010F58BFB2EB64
:100B3000030088BFC81738BF6FEAE17018BF40F0E4
:100B4000010070477FEA226C02D15FEA402C05D198
:100B50007FEA236CE4D15FEA412CE1D05DF8040B1D
:100B6000704700BF844608466146FFE70FB5FFF7B0
:100B7000C9FF002848BF10F1000F0FBD4DF808ED68
:100B8000FFF7F4FF0CBF012000205DF808FB00BF59
:100B90004DF808EDFFF7EAFF34BF012000205DF8B3
:100BA00008FB00BF4DF808EDFFF7E0FF94BF012000
:100BB00000205DF808FB00BF4DF808EDFFF7D2FFFD
:100BC00094BF012000205DF808FB00BF4DF808ED40
:100BD000FFF7C8FF34BF012000205DF808FB00BF0D
:100BE00042000ED2B2F1FE4F0BD34FF09E03B3EB97
:100BF000126209D44FEA002343F0004323FA02F0C3
:100C000070474FF00000704712F1610F01D14202AE
:100C100002D14FF0FF3070474FF00000704700BF27
:100C2000844641EA000313F0030349D1403A23D339
:100C30000B6803604B6843608B688360CB68C3605C
:100C40000B6903614B6943618B698361CB69C36144
:100C50000B6A03624B6A43628B6A8362CB6AC3622C
:100C60000B6B03634B6B43638B6B8363CB6BC36314
:100C700040304031403ADBD230320BD30B68036056
:100C80004B6843608B688360CB68C3601030103161
:100C9000103AF3D20C3205D351F8043B40F8043B30
:100CA000043AF9D2043208D0D2071CBF11F8013B34
:100CB00000F8013B01D30B8803806046704700BFFA
:100CC000082A13D38B07B1D010F00303AED0C3F1C1
:100CD0000403D21ADB071CBF11F8013B00F8013BEB
:100CE000A4D331F8023B20F8023B9FE7043AD9D362
:100CF000013A11F8013B00F8013BF9D20B7803707F
:100D00004B7843708B7883706046704770B54FF0B6
:100D1000FF0C4CF4E06C1CEA11541DBF1CEA135587
:100D200094EA0C0F95EA0C0F00F0DEF82C4481EAEF
:100D3000030621EA4C5123EA4C5350EA013518BF0F
:100D400052EA033541F4801143F4801338D0A0FBFC
:100D500002CE4FF00005E1FB02E506F00042E0FBA9
:100D600003E54FF00006E1FB03569CF0000F18BFAF
:100D70004EF0010EA4F1FF04B6F5007F64F5407457
:100D800004D25FEA4E0E6D4146EB060642EAC621EA
:100D900041EA55514FEAC52040EA5E504FEACE2E57
:100DA000B4F1FD0C88BFBCF5E06F1ED8BEF1004F5A
:100DB00008BF5FEA500E50F1000041EB045170BDD6
:100DC00006F0004646EA010140EA020081EA03011A
:100DD000B4EB5C04C2BFD4EB0C0541EA045170BD16
:100DE00041F480114FF0000E013C00F3AB8014F190
:100DF000360FDEBF002001F0004170BDC4F10004D9
:100E0000203C35DA0C341BDC04F11404C4F1200559
:100E100000FA05F320FA04F001FA05F240EA0200B4
:100E200001F0004221F0004110EBD37021FA04F6EA
:100E300042EB06015EEA430E08BF20EAD37070BDA4
:100E4000C4F10C04C4F1200500FA04F320FA05F003
:100E500001FA04F240EA020001F0004110EBD37005
:100E600041F100015EEA430E08BF20EAD37070BD75
:100E7000C4F1200500FA05F24EEA020E20FA04F34E
:100E800001FA05F243EA020321FA04F001F00041FD
:100E900021FA04F220EA020000EBD3705EEA430E6E
:100EA00008BF20EAD37070BD94F0000F0FD101F09D
:100EB0000046400041EB010111F4801F08BF013CD6
:100EC000F7D041EA060195F0000F18BF704703F014
:100ED0000046520043EB030313F4801F08BF013D9B
:100EE000F7D043EA0603704794EA0C0F0CEA135557
:100EF00018BF95EA0C0F0CD050EA410618BF52EA11
:100F00004306D1D181EA030101F000414FF0000016
:100F100070BD50EA410606BF1046194652EA430624
:100F200019D094EA0C0F02D150EA013613D195EA98
:100F30000C0F05D152EA03361CBF104619460AD1E0
:100F400081EA030101F0004141F0FE4141F47001EA
:100F50004FF0000070BD41F0FE4141F4780170BDDA
:100F600070B54FF0FF0C4CF4E06C1CEA11541DBF3F
:100F70001CEA135594EA0C0F95EA0C0F00F0A7F841
:100F8000A4EB050481EA030E52EA03354FEA01316E
:100F900000F088804FEA03334FF0805545EA131381
:100FA00043EA12634FEA022245EA111545EA106549
:100FB0004FEA00260EF000419D4208BF964244F1E0
:100FC000FD0404F5407402D25B084FEA3202B61AFF
:100FD00065EB03055B084FEA32024FF480104FF4D3
:100FE000002CB6EB020E75EB030E22BFB61A754647
:100FF00040EA0C005B084FEA3202B6EB020E75EBDA
:10100000030E22BFB61A754640EA5C005B084FEA41
:101010003202B6EB020E75EB030E22BFB61A75460E
:1010200040EA9C005B084FEA3202B6EB020E75EB19
:10103000030E22BFB61A754640EADC0055EA060EDA
:1010400018D04FEA051545EA16754FEA06164FEA1D
:10105000C30343EA52734FEAC2025FEA1C1CC0D1C9
:1010600011F4801F0BD141EA00014FF000004FF056
:10107000004CB6E711F4801F04BF01430020B4F117
:10108000FD0C88BFBCF5E06F3FF6AFAEB5EB030CCF
:1010900004BFB6EB020C5FEA500C50F1000041EBCC
:1010A000045170BD0EF0004E4EEA113114EB5C0499
:1010B000C2BFD4EB0C0541EA045170BD41F480116C
:1010C0004FF0000E013C90E645EA060E8DE60CEA74
:1010D000135594EA0C0F08BF95EA0C0F3FF43BAF91
:1010E00094EA0C0F0AD150EA01347FF434AF95EA48
:1010F0000C0F7FF425AF104619462CE795EA0C0F2C
:1011000006D152EA03353FF4FDAE1046194622E7F8
:1011100050EA410618BF52EA43067FF4C5AE50EAD2
:1011200041047FF40DAF52EA43057FF4EBAE12E7C2
:101130004FEA410C7FEA6C5C02D150EA013C0AD1D3
:101140004FEA430C7FEA6C5C02D152EA033C02D1C5
:101150004FF0000070474FF0010070474FEA410226
:1011600012F5001215D211D56FF47873B3EB6252F9
:1011700012D94FEAC12343F0004343EA505311F020
:10118000004F23FA02F018BF404270474FF00000B2
:10119000704750EA013005D111F0004008BF6FF0F0
:1011A000004070474FF00000704700BF0348044BF9
:1011B000834202D0034B03B118477047CC0600208E
:1011C000CC060020000000000548064B1B1AD90F72
:1011D00001EBA301491002D0034B03B1184770473C
:1011E000CC060020CC0600200000000010B5064C04
:1011F000237843B9FFF7DAFF044B13B10448AFF388
:1012000000800123237010BDCC06002000000000E8
:1012100050B6000808B5054B1BB105490548AFF3AA
:101220000080BDE80840FFF7CFBF00BF000000000E
:10123000D006002050B6000884B00F4B9A6942F0E7
:1012400020029A619A6902F020020192019A9A6939
:1012500042F004029A619A6902F004020292029A30
:101260009A6942F008029A619B6903F008030393AC
:10127000039B04B0704700BF0010024008B50B4844
:101280000B4B03600B4B436000238360C3604FF440
:101290008042026143618361C361036200F07CFEAE
:1012A00000B908BD00F03AF8FBE700BFE8060020EF
:1012B00000540040801A060010B586B00023029347
:1012C0000393049305930268114B9A4201D006B030
:1012D00010BD104CA36943F00803A361A36903F098
:1012E00008030093009BC02302931223039303235C
:1012F000059302A9084800F0E3FAE36943F40013F8
:10130000E361E36903F400130193019BDFE700BF8E
:101310000054004000100240000C014072B6FEE78D
:1013200000B591B02822002106A802F061FD00233B
:1013300001930293039304930593012206924FF4C1
:10134000803307930A9202220D920E934FF4E0131A
:101350000F9306A801F07CF980B90F2301930221B5
:101360000291002303934FF480620492059301A835
:1013700001F0A0FB20B911B05DF804FBFFF7CEFF30
:10138000FFF7CCFF70B52B492B4B1868FFF716FB06
:10139000064600F007FAFFF7C3FFFFF74DFF00F026
:1013A000F7F8FFF76BFF00F05BF9244C00212046B3
:1013B00001F0CEFE0421204601F0CAFE082120469D
:1013C00001F0C6FE1E4802F085FA02F023F916E08D
:1013D0001C4C1D4B19682046FFF73CFA1B4C21683A
:1013E000FFF730F902F048F92060072102F06CF9AC
:1013F00002460021304602F0CFF9154B1D6002F085
:101400005FF9FFF7CFF90546114B1968FFF718F997
:101410001049FFF71FFA04460021FFF7C3FB00281D
:10142000D6D14FF07C512046FFF7D0FB0028D0D01A
:10143000044CCEE700004040100000204807002088
:10144000900700206F12833A000000204007002020
:101450003C070020BD37863582B00E4B9A6942F0BA
:1014600001029A619A6902F001020092009ADA6917
:1014700042F08052DA61DB6903F080530193019BF3
:10148000054A536823F0E06343F00073536002B0F1
:10149000704700BF0010024000000140FEE7FEE779
:1014A000FEE7FEE7FEE770477047704708B500F0BB
:1014B0008BF908BD0120704708B502F03DFD1623E9
:1014C00003604FF0FF3008BD08B54FF0FF31FFF764
:1014D000F3FFFEE710B503460C4A0D490D480068BE
:1014E00040B10C4800680344521A934206D8094A96
:1014F000136010BD0748084C0460F2E702F01CFDC1
:101500000C2303604FF0FF30F3E700BF00500020D2
:101510000004000044070020000B0020704703680F
:10152000B3F1804F00D0704782B003F50433DA691D
:1015300042F00102DA61DB6903F001030193019BD0
:1015400002B0704700B587B0002302930393049361
:1015500005930368B3F1804F02D007B05DF804FB38
:1015600003F504339A6942F004029A619B6903F01F
:1015700004030193019B0723029302230393059322
:1015800002A9024800F09CF9E7E700BF000801400B
:1015900000B58FB000230A930B930C930D9308931F
:1015A000099301930293039304930593069307937E
:1015B0002A484FF0804202604360836041F61F4238
:1015C000C2600361836101F035FC002831D14FF422
:1015D00080530A930AA9214801F02CFD60BB1F48E3
:1015E00001F054FC58BB00230893099308A91B4839
:1015F00001F01CFE30BB6023019300220292039293
:10160000059201A9154801F09BFCF0B904220DEBED
:101610000201124801F094FCD0B9082201A90F4838
:1016200001F08EFCB8B90D48FFF78CFF0FB05DF8E4
:1016300004FBFFF773FECAE7FFF770FECFE7FFF783
:101640006DFED0E7FFF76AFED5E7FFF767FEDDE73F
:10165000FFF764FEE1E7FFF761FEE4E748070020DB
:1016600008B50A480A4B03604FF4E1334360002396
:101670008360C36003610C2242618361C36101F036
:1016800097FE00B908BDFFF749FEFBE79007002071
:101690000038014010B586B00023029303930493F1
:1016A00005930268174B9A4201D006B010BD03F5AE
:1016B00058439A6942F480429A619A6902F48042DE
:1016C0000092009A9A6942F004029A619B6903F0C1
:1016D00004030193019B4FF40073029302230393CD
:1016E00003230593084C02A9204600F0E9F84FF4C3
:1016F0008063029300230393049302A9204600F021
:10170000DFF8D2E70038014000080140FFF706FF8C
:101710000B480C490C4A002302E0D458C45004334F
:10172000C4188C42F9D3094A094C002301E0136024
:101730000432A242FBD302F005FCFFF723FE704700
:1017400000000020CC06002094BC0008CC0600203D
:10175000FC0A0020FEE7000010B504460E4B1A7884
:101760004FF47A73B3FBF2F30C4A1068B0FBF3F05A
:1017700000F092F868B90F2C01D901200AE000228C
:1017800021464FF0FF3000F077F8054B1C60002039
:1017900000E0012010BD00BF080000200400002070
:1017A0000C00002008B5074A136843F010031360CB
:1017B000032000F04FF80F20FFF7CEFFFFF74CFE9D
:1017C000002008BD00200240034A1168034B1B782B
:1017D0000B441360704700BFD807002008000020AA
:1017E000014B1868704700BFD8070020002808DBAD
:1017F0000901C9B200F1604000F5614080F80013B2
:10180000704700F00F000901C9B2014B195470472D
:1018100014ED00E000B500F00700C0F1070CBCF1CA
:10182000040F28BF4FF0040C031D062B0FD9C31E55
:101830004FF0FF3E0EFA0CF021EA000199400EFA3B
:1018400003FE22EA0E0241EA02005DF804FB0023D7
:10185000EEE70000074AD36823F4E0631B041B0C87
:10186000000200F4E060034343F0BF6343F400333D
:10187000D360704700ED00E010B50446054BD86812
:10188000C0F30220FFF7C6FF01462046FFF7AEFF78
:1018900010BD00BF00ED00E00138B0F1807F0BD239
:1018A0004FF0E0235861054AF02182F82310002010
:1018B000986107221A6170470120704700ED00E02F
:1018C00070B582B00024A446A1E07E4DAB4214D096
:1018D0000CD8A5F58015AB420FD005F57025AB42AD
:1018E0000BD0A5F58015AB4210D106E0764DAB428A
:1018F00003D005F58035AB4208D18B68002B50D062
:10190000012B49D04261082400E0CC68BEF1FF0FF2
:1019100049D806464FEA8C0233680F25954023EAE2
:10192000050304FA02F2134333604B6813F0805F3F
:101930006BD0664B9A6942F001029A619B6903F091
:1019400001030193019B4FEA9C02951C604B53F8E5
:1019500025600CF00305AD000F23AB4026EA03061B
:101960005C4B984226D003F58063984200F08C804F
:1019700003F58063984200F0898003F58063984204
:1019800016D0042317E0CC680434BFE7CC680834D1
:10199000BCE7CC680C34B9E702610824B6E7002440
:1019A000B4E70424B2E7061DACF108029200B3E7E5
:1019B000032300E00023AB4033430232444D45F89B
:1019C00022304B6813F4801F62D0434A936843EA85
:1019D0000E0393604B6813F4001F5FD03E4AD36838
:1019E00043EA0E03D3604B6813F4003F5CD03A4ADD
:1019F000536843EA0E0353604B6813F4803F59D099
:101A0000354A136843EA0E0313600CF1010C0B68AE
:101A100033FA0CF254D0012202FA0CF203EA020E5D
:101A200032EA0303F1D14B68122B3FF64EAF122B73
:101A30003FF66CAF01A555F823F000BFFB18000876
:101A40000B1900088D1900089F1900080D190008CE
:101A50000D1900080D1900080D1900080D190008CE
:101A60000D1900080D1900080D1900080D190008BE
:101A70000D1900080D1900080D1900080D190008AE
:101A80008719000893190008012394E7022392E7BD
:101A9000114A936823EA0E0393609BE70E4AD368CA
:101AA00023EA0E03D3609EE70B4A536823EA0E0332
:101AB0005360A1E7084A136823EA0E031360A4E702
:101AC00002B070BD00002210000031100010024072
:101AD00000000140000801400004014003685A6909
:101AE00012F4806F01D1002070476FF480625A6158
:101AF00000230363202280F83D2080F83E30026CF2
:101B000042F00402026480F83C30012070472DE965
:101B1000F04106460C46174698463BE0FFF760FE4C
:101B2000069BC01A404502D8B8F1000F32D1012DF2
:101B300018D033689B6924EA03039BB2B3FA83F39A
:101B40005B099F4226D100233363202286F83D2083
:101B500086F83E30326C42F02002326486F83C3027
:101B6000012027E033685B6924EA03039BB2B3FAE0
:101B700083F35B09E5E733685B6924EA030C1FFA2A
:101B80008CFCBCFA8CFC4FEA5C1C674511D1B8F1A7
:101B9000FF3FC3D1C4F30745012DECD033689B69E7
:101BA00024EA030C1FFA8CFCBCFA8CFC4FEA5C1C88
:101BB000EBE70020BDE8F0812DE9F84305460E462D
:101BC0009046994653E01A6842F400721A602B68F6
:101BD0006FF480625A6100232B63202285F83D2038
:101BE00085F83E302A6C42F004022A6485F83C30C5
:101BF00001204AE0FFF7F4FDA0EB0900404502D8C0
:101C0000B8F1000F33D1012F17D02B689B6926EA5A
:101C100003039BB2003B18BF012343B300232B6394
:101C2000202285F83D2085F83E302A6C42F02002C3
:101C30002A6485F83C30012027E02B685B6926EA9E
:101C400003039BB2003B18BF0123E6E72B689C69A6
:101C500026EA0404A4B2003C18BF0124A4B12B68F6
:101C60005A6912F4806FAED1B8F1FF3FC2D1C6F30A
:101C70000747012FEAD12B685C6926EA0404A4B265
:101C8000003C18BF0124E9E70020BDE8F88300000C
:101C9000F0B583B004460D4616461F46C36A082BAE
:101CA0000DD0012B0BD013F5803F08D0036B122B06
:101CB0000AD10268136843F48073136004E0226859
:101CC000136843F4807313600097334600224FF08B
:101CD00001112046FFF71BFF80B92369B3F5804F40
:101CE00016D1236805F0FE051D613B4632461349B7
:101CF0002046FFF761FFF8B903B0F0BD23681B6809
:101D000013F4807F02D04FF4007323640320F3E7C1
:101D1000EB11226803F0060343F0F00313613B4626
:101D2000324607492046FFF747FF18B92368EDB24E
:101D30001D61DAE70120DFE70120DDE70200010095
:101D4000080001002DE9F04184B004460D46164616
:101D50001F46C26A01680B6843F480630B60082A5F
:101D60000DD0012A0BD012F5803F08D0036B112B48
:101D70000AD10268136843F48073136004E0226898
:101D8000136843F4807313600097334600224FF0CA
:101D900001112046FFF7BBFE98B92369B3F5804FC8
:101DA00019D1236845F00105EDB21D613B4632466D
:101DB0002A492046FFF700FF00284CD104B0BDE8B7
:101DC000F08123681B6813F4807F02D04FF4007306
:101DD00023640320F2E74FEAE51808F006082368B9
:101DE00048F0F0021A613B4632461D492046FFF793
:101DF000E3FE08B10120E1E72368EDB21D613B4637
:101E0000324616492046FFF7D7FE08B10120D5E734
:101E100000220392236859690391996903910399F8
:101E2000196841F480711960009733464FF0011131
:101E30002046FFF76CFE20B9226848F0F1031361D9
:101E4000B4E723681B6813F4807F02D04FF400735B
:101E500023640320B2E70120B0E700BF02000100C5
:101E60000800010070B504460D46164623685B69FC
:101E700013F0800F21D12046FFF730FEF8B9B5F1FD
:101E8000FF3FF3D0FFF7ACFC801BA84201D8002D28
:101E9000ECD123685B6913F0800FE7D10023236343
:101EA000202284F83D2084F83E30226C42F020024B
:101EB000226484F83C30012000E0002070BD012045
:101EC000FCE770B504460D46164623685B6913F0BF
:101ED000040F21D12046FFF701FEF8B9B5F1FF3F0D
:101EE000F3D0FFF77DFC801BA84201D8002DECD178
:101EF00023685B6913F0040FE7D1002323632022DA
:101F000084F83D2084F83E30226C42F020022264A6
:101F100084F83C30012000E0002070BD0120FCE787
:101F200070B504460D46164614E06FF010025A6173
:101F300000232363202284F83D2084F83E30226C65
:101F4000226484F83C30012025E023685B6913F0AB
:101F5000400F10D02368586910F0400F1AD158690B
:101F600010F0100FE1D1FFF73BFC801BA842ECD82A
:101F7000002DEFD1E9E700232363202284F83D20E0
:101F800084F83E30226C42F02002226484F83C3017
:101F9000012000E0002070BD002800F0CC8070B56A
:101FA000044690F83D30002B77D0242384F83D3050
:101FB0002268136823F0010313602268136843F456
:101FC000004313602268136823F40043136000F099
:101FD0002DFE62685A4B9A4264D85A4B98428CBF85
:101FE00000230123002B40F0A8805749A1FB0031BA
:101FF0008B0C25686A6822F03F0242EA91426A60CF
:1020000021680A6A22F03F0266684D4DAE424FD801
:10201000013313430B622168CA6922F44F4222F054
:10202000FF026568464B9D424CD8431E6D00B3FBD2
:10203000F5F3013340F6FC70034278D0C3F30B0391
:102040001A43CA6121680B6823F0C003E269206A61
:10205000024313430B6021688B6823F4034323F08E
:10206000FF032269E068024313438B602168CB6859
:1020700023F0FF036269A06902431343CB60226827
:10208000136843F00103136000202064202384F8C8
:102090003D30206384F83E0070BD80F83C30FFF78F
:1020A0000BF982E7294B98428CBF0023012399E763
:1020B0004FF4967505FB03F3254DA5FB03539B09D0
:1020C0000133A6E7A668BEB9431E05EB450CB3FB7A
:1020D000FCF30133C3F30B03B3FA83F35B0943BB94
:1020E000C6B9431E05EB4505B3FBF5F30133C3F356
:1020F0000B0343F40043A3E7431E05EB850C0CEBF5
:102100008C0CB3FBFCF30133C3F30B03B3FA83F37F
:102110005B09E4E7431E05EB850505EB8505B3FB8D
:10212000F5F30133C3F30B0343F4404388E704237F
:1021300086E7012384E7012070470120ACE700BF58
:10214000A08601007F841E0083DE1B43FF083D0044
:10215000D34D62102DE9F04385B004460F469146F9
:1021600098460C9EFFF73CFB054694F83D00C0B234
:10217000202804D00227384605B0BDE8F08300953A
:10218000192301224F492046FFF7C1FC002840F0E7
:10219000928094F83C30012B00F08F80012384F86A
:1021A0003C3023681A6812F0010F03D11A6842F01C
:1021B00001021A602268136823F40063136021236C
:1021C00084F83D30102384F83E3000232364C4F8A3
:1021D0002490A4F82A80638D23853B4BE3622B4631
:1021E000324639462046FFF753FD0746002866D1A0
:1021F0000023039323685A6903929B690393039B0B
:1022000011E0236C042B01D00127B4E72268136886
:1022100043F400731360F7E72A4631462046FFF780
:1022200050FE00282ED1238D002B36D02A46314671
:102230002046FFF717FE0028E3D1626A2368127870
:102240001A61606A431C6362618D89B2013989B287
:102250006185238D013B9BB223852268516911F072
:10226000040FD9D0002BD7D043781361636A0133B0
:102270006362638D9BB2013B9BB26385238D013BFF
:102280002385C9E7236C042B01D0012773E722685B
:10229000136843F400731360F7E72268136843F48C
:1022A00000731360202384F83D30002384F83E300F
:1022B00084F83C305FE702275DE702275BE70127F0
:1022C00059E700BF020010000000FFFF2DE9F043B6
:1022D00089B004460F4691469846109E0023079306
:1022E000FFF77EFA054694F83D00C0B2202804D0DE
:1022F0000227384609B0BDE8F08300951923012272
:1023000080492046FFF703FC002840F07A8194F8CA
:102310003C30012B00F07781012384F83C302368A6
:102320001A6812F0010F03D11A6842F001021A6014
:102330002268136823F400631360222384F83D307D
:10234000102384F83E3000232364C4F82490A4F8BA
:102350002A80638D23856C4BE3622B4632463946D7
:102360002046FFF7EFFC0746002840F04E81238D02
:102370005BB9039323685A6903929A690392039A9B
:102380001A6842F400721A60F3E0012B0FD0022B9E
:1023900021D02268136843F48063136000230693FE
:1023A00023685A6906929B690693069BE1E02268BE
:1023B000136823F48063136072B6002304932368C8
:1023C0005A6904929A690492049A1A6842F4007253
:1023D0001A6062B6CDE02268136843F400631360AC
:1023E00072B60023059323685A6905929A6905928B
:1023F000059A1A6822F480621A6062B6B9E02A4629
:1024000031462046FFF78CFD002840F0008123680C
:102410001A69636A1A70636A01336362238D013B30
:102420002385638D9BB2013B9BB26385A1E0009540
:102430003346002235492046FFF769FB002840F06B
:10244000EA802268136823F48063136072B62368FD
:102450001A69636A1A70636A01336362238D013BF0
:102460002385638D9BB2013B9BB26385284B1B6820
:10247000DB08284AA2FB03231B0A03EB8303C3EBFD
:10248000C30307930799013907910799002928D0B9
:1024900023685A6912F0040FF4D01A6842F40072EB
:1024A0001A6023681A69636A1A70636A0133636287
:1024B000238D013B2385638D9BB2013B9BB26385DA
:1024C00062B623681A69636A1A70636A01336362C9
:1024D000238D013B2385638D9BB2013B9BB26385BA
:1024E00047E000232363202284F83D2084F83E3017
:1024F000226C42F02002226462B684F83C3001274C
:10250000F7E600BF020010000000FFFF040001001A
:102510000400002089B5F8142A4631462046FFF70A
:10252000FFFC002879D123681A69636A1A70636A0C
:1025300001336362228D013A92B22285638D9BB290
:10254000013B9BB263852368596911F0040F10D0D9
:10255000032A48D023681A69636A1A70636A0133D0
:102560006362238D013B2385638D9BB2013B9BB24C
:102570006385218D00293BD00329CDD801293FF463
:102580003EAF02297FF453AF009533460022244921
:102590002046FFF7BCFA00283BD172B622681368C8
:1025A00043F40073136023681A69636A1A70636ADC
:1025B00001336362238D013B2385638D9BB2013B15
:1025C0009BB2638562B623681A69636A1A70636A8C
:1025D00001336362238D013B2385638D9BB2013BF5
:1025E0009BB26385C5E71A6822F480621A60B1E77E
:1025F000202384F83D30002384F83E3084F83C30BA
:1026000077E6022775E6022773E6012771E60127C0
:102610006FE601276DE601276BE6012769E600BF3B
:102620000400010082B0084B1B68084AA2FB032388
:102630005B0A00FB03F3019300BF019B5A1E01924A
:10264000002BF9D102B0704704000020D34D621076
:10265000002800F0F18170B582B00446036813F0E1
:10266000010F2CD0994B5B6803F00C03042B1DD099
:10267000964B5B6803F00C03082B12D06368B3F52C
:10268000803F41D0002B55D103F1804303F5043343
:102690001A6822F480321A601A6822F480221A60C2
:1026A00037E08A4B5B6813F4803FE7D0874B1B68A9
:1026B00013F4003F03D06368002B00F0BF81236850
:1026C00013F0020F75D0814B5B6813F00C0F5FD0D5
:1026D0007E4B5B6803F00C03082B54D02369002B5E
:1026E00000F08A807A4B01221A60FFF779F80546DC
:1026F000764B1B6813F0020F75D1FFF771F8401B82
:102700000228F5D903209EE1704A136843F4803310
:102710001360636843B3FFF763F805466B4B1B68B0
:1027200013F4003FCBD1FFF75BF8401B6428F5D9C9
:10273000032088E1B3F5A02F09D0644B1A6822F476
:1027400080321A601A6822F480221A60E1E703F1ED
:102750008043A3F53C331A6842F480221A601A6859
:1027600042F480321A60D4E7FFF73AF80546574B37
:102770001B6813F4003FA2D0FFF732F8401B642817
:10278000F5D903205FE1514B5B6813F4803FA5D17D
:102790004E4B1B6813F0020F03D02369012B40F04E
:1027A0004F814A4A136823F0F803616943EAC10381
:1027B0001360236813F0080F33D0A369002B5CD09B
:1027C000434B0122C3F88024FFF70AF805463F4B2C
:1027D0005B6A13F0020F21D1FFF702F8401B0228B9
:1027E000F5D903202FE1394A136823F0F803616912
:1027F00043EAC1031360DCE7354B00221A60FEF7A1
:10280000EFFF0546314B1B6813F0020FD1D0FEF7E6
:10281000E7FF401B0228F5D9032014E10120FFF750
:1028200001FF236813F0040F00F09680274BDB694B
:1028300013F0805F34D1254BDA6942F08052DA61BF
:10284000DB6903F080530193019B0125214B1B6839
:1028500013F4807F26D0E368012B3DD0002B53D1A9
:1028600003F1804303F504331A6A22F001021A626D
:102870001A6A22F004021A6233E0154B0022C3F8F0
:102880008024FEF7ADFF0546104B5B6A13F0020F84
:10289000C7D0FEF7A5FF401B0228F5D90320D2E0E0
:1028A0000025D3E70B4A136843F480731360FEF7E7
:1028B00097FF0646074B1B6813F4807FCBD1FEF7CA
:1028C0008FFF801B6428F5D90320BCE00010024074
:1028D00000004242007000405F4A136A43F0010367
:1028E0001362E36833B3FEF77BFF06465A4B1B6A5D
:1028F00013F0020F2FD1FEF773FF801B41F28833D4
:102900009842F3D903209EE0052B09D0524B1A6A56
:1029100022F001021A621A6A22F004021A62E0E747
:102920004D4B1A6A42F004021A621A6A42F001021E
:102930001A62D6E7FEF754FF0646474B1B6A13F0B0
:10294000020F08D0FEF74CFF801B41F288339842FB
:10295000F3D9032077E0E5B9E369002B72D03E4A52
:10296000526802F00C02082A56D0022B17D03B4BBB
:1029700000221A66FEF734FF0446374B1B6813F03B
:10298000007F47D0FEF72CFF001B0228F5D903205B
:1029900059E0314AD36923F08053D361DCE72F4BF0
:1029A00000221A66FEF71CFF05462B4B1B6813F02E
:1029B000007F06D0FEF714FF401B0228F5D9032044
:1029C00041E0236AB3F5803F1AD023494B6823F4D2
:1029D0007413226A606A024313434B601F4B012247
:1029E0001A66FEF7FDFE04461B4B1B6813F0007FC2
:1029F0000ED1FEF7F5FE001B0228F5D9032022E0D8
:102A0000154A536823F40033A1680B435360DCE795
:102A1000002018E0002016E0012B16D00E4B5B685A
:102A200003F48031226A914211D103F47013626A77
:102A300093420ED1002006E001207047012002E001
:102A4000012000E0002002B070BD0120FBE7012062
:102A5000F9E70120F7E700BF001002400000424202
:102A60000F4B5B6803F00C02082A01D00D48704739
:102A7000C3F383420C49885C13F4803F0BD0084BAE
:102A80005B68C3F34043094AD35C064A02FB00F08B
:102A9000B0FBF3F07047064B03FB00F0704700BF3C
:102AA0000010024000127A0084B6000880B60008C8
:102AB00000093D00002800F0A08070B50D460446D6
:102AC000524B1B6803F007038B420BD24F4A13682B
:102AD00023F007030B431360136803F007038B42D3
:102AE00040F08D80236813F0020F17D013F0040F0D
:102AF00004D0474A536843F4E0635360236813F0FB
:102B0000080F04D0424A536843F460535360404A6C
:102B1000536823F0F003A1680B435360236813F05C
:102B2000010F31D06368012B20D0022B25D0384A09
:102B3000126812F0020F64D035494A6822F003028D
:102B400013434B60FEF74CFE0646314B5B6803F0C7
:102B50000C036268B3EB820F16D0FEF741FE801BB8
:102B600041F288339842F0D9032045E0284A1268A0
:102B700012F4003FE0D101203EE0254A126812F035
:102B8000007FD9D1012037E0204B1B6803F00703F9
:102B9000AB420AD91D4A136823F007032B43136085
:102BA000136803F00703AB422DD1236813F0040F21
:102BB00006D0174A536823F4E063E1680B4353607F
:102BC000236813F0080F07D0114A536823F46053A9
:102BD000216943EAC1035360FFF742FF0C4B5B6876
:102BE000C3F303130B4AD35CD8400B4B18600B4B59
:102BF0001868FEF7B1FD002070BD0120704701206C
:102C0000FAE70120F8E70120F6E700BF00200240C4
:102C10000010024070B60008040000200C000020E4
:102C2000014B1868704700BF0400002008B5FFF78B
:102C3000F7FF044B5B68C3F30223034AD35CD8401D
:102C400008BD00BF0010024068B6000808B5FFF7D5
:102C5000E7FF044B5B68C3F3C223034AD35CD8404D
:102C600008BD00BF0010024068B6000830B4026A18
:102C7000036A23F0010303624568836923F0730349
:102C80000C681C4322F002028B6813430B4A9042EB
:102C900006D0456084614A684263036230BC704775
:102CA00023F00803CA681A4322F0040325F4407590
:102CB0004A692A438D691543EBE700BF002C0140A8
:102CC00030B4036A026A22F4807202624468C26904
:102CD00022F073020D68154323F400738A6843EAF7
:102CE00002230D4A904206D04460C5614A68C2631F
:102CF000036230BC704723F40063CA6843EA0223CE
:102D000023F4806324F440544A6944EA02148A6933
:102D100044EA0214E8E700BF002C014030B4036A23
:102D2000026A22F4805202624468C26922F4E642D6
:102D30000D6842EA052223F400538D6843EA053307
:102D4000074DA84206D04460C2614A68026403622B
:102D500030BC704724F480444D6944EA8514F2E79E
:102D6000002C014010B4036A046A24F001040462D8
:102D7000846924F0F00C4CEA021223F00A030B439E
:102D80008261036210BC704710B4036A046A24F0C5
:102D900010040462846924F4704C4CEA023223F07B
:102DA000A00343EA01138261036210BC7047836889
:102DB00023F070030B4343F00703836070477047B1
:102DC00003681B4A90420AD0B0F1804F07D0A2F5A9
:102DD0009432904203D002F58062904203D123F0F6
:102DE00070034A681343124A90420AD0B0F1804FF0
:102DF00007D0A2F59432904203D002F5806290424F
:102E000003D123F44073CA68134323F080034A6953
:102E1000134303608B68C3620B688362044B984260
:102E200002D00123436170470B690363F9E700BFD8
:102E3000002C014040B310B5044690F83D30F3B18A
:102E4000022384F83D30214651F8040BFFF7B8FF08
:102E5000012384F8463084F83E3084F83F3084F80B
:102E6000403084F8413084F8423084F8433084F8AC
:102E7000443084F8453084F83D30002010BD80F89F
:102E80003C30FEF74CFBDBE70120704740B310B548
:102E9000044690F83D30F3B1022384F83D302146DA
:102EA00051F8040BFFF78CFF012384F8463084F8B7
:102EB0003E3084F83F3084F8403084F8413084F864
:102EC000423084F8433084F8443084F8453084F844
:102ED0003D30002010BD80F83C30FFF770FFDBE78D
:102EE0000120704730B4036A026A22F010020262C5
:102EF0004468826922F4E6420D6842EA052223F022
:102F000020038D6843EA05130C4DA84206D04460A7
:102F100082614A688263036230BC704723F0800399
:102F2000CD6843EA051323F0400324F440644D695F
:102F300044EA85048D6944EA8504E8E7002C0140F1
:102F400038B590F83C30012B66D004460D4601237D
:102F500080F83C300C2A5AD8DFE802F0075959595A
:102F60001B5959593059595944000068FFF77EFEE2
:102F70002268936943F0080393612268936923F000
:102F8000040393612268936929690B4393610020CC
:102F90003EE00068FFF7A6FF2268936943F40063F0
:102FA00093612268936923F4806393612268936933
:102FB000296943EA01239361002029E00068FFF7B3
:102FC0007FFE2268D36943F00803D3612268D36986
:102FD00023F00403D3612268D36929690B43D361C9
:102FE000002015E00068FFF799FE2268D36943F4DA
:102FF0000063D3612268D36923F48063D3612268BC
:10300000D369296943EA0123D361002000E001204C
:10301000002384F83C3038BD0220FCE710B48468FB
:1030200024F47F4C42EA03220A4342EA0C02826003
:1030300010BC704790F83C30012B78D010B5044696
:10304000012380F83C30022380F83D300268936809
:1030500023F47F4323F0770393600B68602B4CD0FD
:1030600023D8402B54D011D8202B03D00AD80BB131
:10307000102B05D119462068FFF799FE002028E0A3
:10308000012026E0302BF5D0012022E0502B0AD180
:10309000CA6849680068FFF765FE50212068FFF79D
:1030A00086FE002015E0012013E0B3F5805F3AD0E2
:1030B000B3F5005F14D0702B37D1CB684A688968AC
:1030C0000068FFF7ABFF2268936843F077039360D3
:1030D0000020012384F83D30002384F83C3010BDEB
:1030E000CB684A6889680068FFF798FF2268936890
:1030F00043F4804393600020EBE7CA6849680068A6
:10310000FFF742FE60212068FFF751FE0020E0E754
:10311000CA6849680068FFF725FE40212068FFF76C
:1031200046FE0020D5E70020D3E70120D1E70220AA
:10313000704701F01F014FF0010C0CFA01FC036A0B
:1031400023EA0C030362036A8A4013430362704755
:1031500010B50446084651BB94F83E30DBB2013B43
:1031600018BF0123002B5BD1002839D1022384F83A
:103170003E30012201462068FFF7DBFF23682A4A20
:1031800093423DD02368284A93423ED0B3F1804F0A
:103190003BD0A2F59432934237D002F5806293423D
:1031A00033D01A6842F001021A60002039E0042985
:1031B00008D008290DD094F84130DBB2013B18BF8C
:1031C0000123CFE794F83F30DBB2013B18BF012366
:1031D000C8E794F84030DBB2013B18BF0123C1E7D8
:1031E000042805D0082807D0022384F84130C0E71E
:1031F000022384F83F30BCE7022384F84030B8E76C
:103200005A6C42F400425A64BCE79A6802F0070222
:10321000062A07D01A6842F001021A60002000E076
:10322000012010BD0020FCE7002C014090F83C205C
:10323000012A2CD010B40346012280F83C2002223F
:1032400080F83D2002685068946820F0700C08688F
:1032500040EA0C0050601A680E4882420AD0B2F16F
:10326000804F07D0A0F59430824203D000F58060F3
:10327000824204D124F080044968214391600122F4
:1032800083F83D20002083F83C0010BC70470220EA
:10329000704700BF002C014010B504460268136956
:1032A00023F44053C1680B431361836802691343DD
:1032B00042691A430168CB6823F4B05323F00C032E
:1032C0001343CB600268536923F4407381690B4355
:1032D00053610268134B9A4220D0FFF7A7FC0246C5
:1032E00002EB820202EB820263689B00B2FBF3F204
:1032F0000D48A0FB02314909642303FB11231B0184
:103300003233A0FB03035B0903F0F00202EB01126E
:1033100003F00F03216813448B6010BDFFF796FC88
:103320000246DDE7003801401F85EB512DE9F843E7
:1033300005460F4616469946DDF820802B681C6826
:1033400037EA04040CBF01240024B4422DD1B8F1A3
:10335000FF3FF3D0B8F1000F05D0FEF741FAA0EB24
:1033600009004045EAD92A6802F10C0353E8003FFE
:1033700023F4D0730C3242E800310029F3D12A68DB
:1033800002F1140353E8003F23F00103143242E832
:1033900000310029F3D1202385F8413085F84230EF
:1033A000002385F84030032000E00020BDE8F883CA
:1033B00060B310B5044690F8413013B3242384F869
:1033C00041302268D36823F40053D3602046FFF7CE
:1033D00063FF2268136923F49043136122685369E1
:1033E00023F02A0353612268D36843F40053D36067
:1033F00000206064202384F8413084F84230606308
:1034000010BD80F84030FEF745F9D7E7012070473E
:103410002DE9F04182B01E4690F84130DBB2202BFE
:103420004BD104460D46904600294AD00AB90120E6
:1034300044E000234364212380F84130FEF7D0F9B3
:103440000746A4F82480A4F82680A368B3F5805F1B
:1034500002D04FF000080FE02369FBB14FF00008E5
:103460000AE038F8023B2268C3F308035360E28C99
:1034700092B2013A92B2E284E38C9BB28BB1009695
:103480003B46002280212046FFF750FFD8B9002D8F
:10349000E7D015F8012B23685A60E8E7A846002515
:1034A000EAE700963B46002240212046FFF73EFF18
:1034B00058B9202384F8413000E0022002B0BDE872
:1034C000F0810120FAE70320F8E70320F6E72DE971
:1034D000F04182B01E4690F84230DBB2202B53D12F
:1034E00004460D469046002952D00AB901204CE00E
:1034F00000234364222280F842200363FEF770F920
:103500000746A4F82C80A4F82E80A368B3F5805F4A
:1035100002D04FF0000817E0236913B14FF0000804
:1035200012E0A84600250FE023685B68C3F3080398
:1035300028F8023B03E023685B682B700135E28DBD
:1035400092B2013A92B2E285E38D9BB2BBB1009692
:103550003B46002220212046FFF7E8FED0B9002D8F
:10356000E2D0A368B3F5805FE5D013B92369002BDF
:10357000E1D023685B6803F07F032B70DEE7202334
:1035800084F84230002000E0022002B0BDE8F08163
:103590000120FAE70320F8E700B583B002F10A033F
:1035A000009393B20A4601460248FEF7D3FD03B0EA
:1035B0005DF804FBE806002000B583B002F10A03C1
:1035C000009393B20A4640F001010348FEF77EFEE5
:1035D00003B05DF804FB00BFE806002000B583B02F
:1035E0000023ADF804300C238DF8033001220DF1D7
:1035F00003016C20FFF7D0FF022201A96C20FFF726
:10360000DBFF9DF804009DF8053043EA002003B07D
:103610005DF804FB08B5054B00221A60FFF7DEFFDA
:10362000FDF7C0F8024B186008BD00BFDC070020A2
:10363000E007002030B583B04FF0E0252B69FEF79E
:10364000CFF86C690134AB69E31A01932B6913F469
:10365000803F0AD14FF47A72019B02FB03F3B3FB64
:10366000F4F302FB003003B030BDFEF7B9F8AB69EC
:10367000E31A0193EEE7000010B5FCF7ADFE0EA3D0
:10368000D3E9002306F0ACFCFCF786FF04460021DA
:10369000FDF792FA08B1204610BD2046FCF79CFECB
:1036A00005A3D3E90023FCF739FDFCF775FF0446B9
:1036B000F1E700BFAFF30080EA2E4454FB2119402C
:1036C00008B5FFF7B7FF08BD10B504460846FDF77B
:1036D0006DF82146FDF7BEF810BD0000F8B50D46A7
:1036E0001446294B1F683946FDF768F90646002144
:1036F000FDF74EFA40B94FF07E513046FDF766FABD
:1037000018B14FF07E5600E0002639462846FDF7F6
:1037100055F905460021FDF73BFA40B94FF07E51BF
:103720002846FDF753FA18B14FF07E5500E000250A
:1037300039462046FDF742F904460021FDF728FAF4
:1037400040B94FF07E512046FDF740FA18B14FF0D6
:103750007E5400E000240D493046FDF77BF80C4B09
:103760001E68FDF73DFA706308492846FDF772F8B8
:10377000FDF736FAB06305492046FDF76BF8FDF713
:103780002FFAF063F8BD00BF100000200000E145F3
:1037900048070020000000002DE9F04F85B00446E6
:1037A00000211046FCF74EFFFFF766FF054604F1C7
:1037B0000040FCF711FE804689462846FCF70CFEC7
:1037C00006460F4606F07CFC02460B46404649463C
:1037D000FDF79CFAFCF7E0FE82463046394606F0DB
:1037E0002BFC06460F462046FCF7F6FD32463B46CC
:1037F000FDF78CFAFCF7D0FE05464FF07C51324BBA
:103800001868FDF727F804465146FCF71BFF83466E
:103810002846FCF7E1FD2AA3D3E90023FDF776FA59
:1038200006460F465046FCF7D7FD02460B4630468B
:103830003946FCF771FC0022244BFDF767FA8046FD
:1038400089462046FCF7C8FD04460D4602460B4655
:1038500040464946FCF762FCFCF79EFE80460AF1B2
:103860000040FCF7B9FD32463B46FCF755FC002210
:10387000164BFDF74BFA02460B4620462946FCF74D
:103880004DFCFCF789FE0446024641465846FFF7C8
:1038900025FF5846FCF7A0FD06460F462046FCF7DC
:1038A0009BFDCDE902014046FCF796FDCDE9000104
:1038B00032463B46064800F06DF905B0BDE8F08F92
:1038C000AA4C58E87AB6FB3F100000200000E03F09
:1038D00094B6000808B5054B1860054B186800231E
:1038E00002221946806800F069F908BDE40700204B
:1038F00020000020022801D80120704708B500F000
:103900001BFB09230360002008BD000010B501382F
:1039100001280AD814464FF0FF3392B207480068D6
:10392000FFF776FD40B9204610BD00F005FB0923E6
:1039300003604FF0FF30F7E70520F5E7E4070020CC
:10394000022801D80020704708B500F0F5FA0923D5
:1039500003604FF0FF3008BD08B500F0EDFA092311
:1039600003604FF0FF3008BD08B548B94FF0FF3392
:10397000012208480068FFF7AAFD40B9012008BDF0
:1039800000F0DAFA092303604FF0FF30F7E7052073
:10399000F5E700BFE407002008B5022804D84FF47B
:1039A00000534B60002008BD00F0C6FA09230360F5
:1039B000F8E70000024A0349034800F0C9B800BF15
:1039C0001400002069750008280000200C4B416895
:1039D00010B59942044601D003F0C6FDA168094B19
:1039E000994202D0204603F0BFFDE168064B9942A0
:1039F00004D02046BDE8104003F0B6BD10BD00BFA6
:103A0000E807002050080020B80800202DE9F843FE
:103A100000250423304C314A3149DFF8C890DFF8E3
:103A2000C880324F324E116004F15C0029460822F2
:103A3000C4E90335C4E90055C4E90555A5606566C8
:103A400000F0D6F904F15800C4E90749C4E9098730
:103A5000E66200F09FFA274B2946082204F1C400D1
:103A60006367C4E91A55C4E91E552567C4F8CC50EC
:103A7000C4F8805000F0BCF904F1680304F1C00000
:103A8000C4F88430C4E92298C4E9247600F082FAAC
:103A9000194B294604F596700822C4F8DC30C4E9B5
:103AA0003455C4E93855C4F8D850C4F83451C4F872
:103AB000E85000F09DF904F1D003C4E93D87C4F853
:103AC000F09004F59470C4F8FC60C4F8EC30BDE8E4
:103AD000F84300F05FBA00BFE8070020200900208B
:103AE000B5390008613D0008853D0008C53D000866
:103AF000E93D0008090001001200020010B504466B
:103B00000A4800F04BFA636B23B9094B094A1B685A
:103B1000626323B1BDE81040044800F041BAFFF7EA
:103B200075FFBDE81040014800F03ABA30090020A6
:103B300020090020CD390008014800F02FBA00BF4D
:103B400030090020014800F02BBA00BF30090020E6
:103B50002DE9F8434FF0000980460F461646D6E996
:103B60000154013D10D4A389012B08D9B4F90E30BA
:103B7000013304D021464046B84749EA0009013DD7
:103B80006B1C04F16804EED13668002EE7D148467C
:103B9000BDE8F8830FB400B5074A83B004AB1068E2
:103BA00053F8042B8168019300F02CFE03B05DF8FC
:103BB00004EB04B0704700BF200000202DE9F04363
:103BC000664C0E46D4F80080174604461D4683B066
:103BD000B8F1000F04D0D8F83430002B00F0A680E4
:103BE000022F05D0012F00F2A580002DC0F2A28087
:103BF000636EDA0751D52146404603F0A9FD216BDB
:103C000041B104F14003994202D0404600F036FA37
:103C1000002323630023B4F90CC0A3611CF0800FC0
:103C200063605DD12CF44A6C2CF0030C022FA4F8D5
:103C30000CC063D001AB214640466A4603F096FFB4
:103C4000A3891843A081002D2ED0002E2DD0D8F8A6
:103C50003430002B37D0009AB4F90C30AA421CBF84
:103C600043F40063A381012F04BF43F00103A38148
:103C700013F00802C4E90465266028D0D90753D59B
:103C80000022A260626E6D42D207A56123D49B051B
:103C900021D4A06D00F084F91DE0A3899B05AAD46E
:103CA000A06D00F07BF9A6E7009D284600F0E2FA3F
:103CB0000646002841D0A38943F08003A381D8F8A9
:103CC0003430002BC7D14046FFF718FFC3E7A2608E
:103CD000626ED207DBD50025284603B0BDE8F0832D
:103CE0004046216900F0CAF9B4F90CC0022F2CF447
:103CF0004A6C2CF0030CA4F80CC09BD100250021C9
:103D0000012204F1430323602361636E4CF002003F
:103D1000A081D807A1606261DED41CF4007FDBD1F2
:103D2000A06D00F03DF9D7E7A560D1E74046FFF769
:103D3000E5FE55E74FF0FF35CEE7DDF80090A945E9
:103D400006D0484600F096FA064608B14D46B2E75E
:103D50004FF0FF35B4F90CC0D1E700BF20000020C0
:103D600010B50C46B1F90E1000F0BAF8002803DBCC
:103D7000236D0344236510BDA38923F48053A381DD
:103D800010BD00BF2DE9F0410C46B1F90C101F46E3
:103D9000CB05054616460BD421F48051A1813B4644
:103DA00032462846B4F90E10BDE8F04100F0AEB836
:103DB000B4F90E100223002200F07CF8B4F90C10C4
:103DC000EAE700BF10B50C46B1F90E1000F072F82A
:103DD000B4F90C30421C0EBF23F4805343F48053DB
:103DE0002065A38110BD00BFB1F90E1000F050B8DE
:103DF00070B5860747D0541E002A3ED00346CAB28B
:103E000001E0013C39D303F8012B9D07F9D1032CC4
:103E10002CD9CDB205EB05250F2C1A4605EB05452F
:103E200034D9A4F1100C2CF00F0603F1100EB64497
:103E30004FEA1C1CC2E90055C2E902551032724516
:103E4000F8D10CF1010214F00C0F03EB021204F094
:103E50000F0C13D0ACF1040323F003030433134419
:103E600042F8045B9342FBD10CF003042CB1C9B2BD
:103E70001C4403F8011BA342FBD170BD64461346EA
:103E8000002CF4D1F9E703461446C0E7A446E1E765
:103E9000002238B5064D044608462A60FFF750FD5B
:103EA000431C00D038BD2B68002BFBD0236038BDED
:103EB0002409002038B50C46114600228446074DDF
:103EC00020462A601A466446FFF746FD431C00D090
:103ED00038BD2B68002BFBD0236038BD240900209F
:103EE00038B50C46114600228446074D20462A600C
:103EF0001A466446FFF738FD431C00D038BD2B68D6
:103F0000002BFBD0236038BD2409002038B50C46B7
:103F1000114600228446074D20462A601A46644610
:103F2000FFF7F4FC431C00D038BD2B68002BFBD0FE
:103F3000236038BD24090020014B1868704700BF7A
:103F40002000002070B50F4B0F4DAB42A3EB0506D0
:103F500007D00024B61055F8043B01349847A64218
:103F6000F9D807F075FB094D094B5E1BAB424FEAD0
:103F7000A60606D0002455F8043B01349847A64213
:103F8000F9D870BD88BC000888BC000888BC00084F
:103F900090BC0008704700BF704700BF704700BF6B
:103FA000704700BF024B13B1024800F005B87047DC
:103FB00000000000597F0008002301461A461846F9
:103FC00004F09CB82DE9F84306460820894603F022
:103FD000D7FF0546DFF89880304600F007FCD8F898
:103FE00008305F6827F00307A7F11104A4EB090468
:103FF0002C44B4FBF5F4013C05FB04F4A54208DCB9
:104000000021304603F096FFD8F808303B44984230
:1040100005D0304600F0F0FB0020BDE8F8833046C4
:10402000614203F087FF01300FD0124AD8F8083000
:104030003F1B47F001075F60136830461B1B13608E
:1040400000F0DAFB0120BDE8F8830021304603F0E0
:1040500071FFD8F80820831A0F2BDADD43F0010333
:104060005360054B03491B68C01A0860D1E700BFC5
:1040700058010020380900204C01002000297CD084
:10408000F8B50C46064600F0B1FB54F8043C764FF8
:10409000A4F1080523F001016818D7F808C04268A8
:1040A000844522F0030200F08380DB07426000EBCE
:1040B000020C33D454F8084CDCF804302D1B214496
:1040C000AC6807F1080C644503F0010364D0D5F82F
:1040D0000CE0C4F80CE0CEF80840002B00F0818022
:1040E00041F001036B600160B1F5007F22D2012233
:1040F000CB0849098A40796801330A437A6057F846
:10410000331007EBC302083AC5E9021247F83350EF
:10411000CD603046BDE8F84000F06EBBDCF80430FE
:10412000DB072BD541F00103B1F5007F44F8043CD7
:104130000160DCD3B1F5206F4FEA512353D28B09D4
:1041400003F1390003F13802C300F818FB580838AE
:10415000984203D161E09B68984204D05A6822F0EB
:1041600003028A42F7D8D868C5E902308560304634
:10417000DD60BDE8F84000F03FBB7047114407F137
:10418000080C836863453FD0C268DA60936041F0F1
:1041900001036B606950A7E7002B5FD10A44D0E9A7
:1041A0000213CB60996042F001036B60AA50B0E744
:1041B0000A44D90707D454F8083CED1A1A44D5E943
:1041C0000213CB60996042F001036B60274BBD6026
:1041D0001B6893429DD8264B30461968FFF7F2FEC4
:1041E00097E71144CDE7142B08D9542B1DD80B0B9E
:1041F00003F16F0003F16E02C300A6E703F15C0058
:1042000003F15B02C300A0E741F00103C7E90455D5
:10421000C5E902CC6B6069507BE70121921001FA7D
:1042200002F279680A437A609EE7B3F5AA7F06D85E
:10423000CB0B03F1780003F17702C30085E740F26E
:104240005452934206D88B0C03F17D0003F17C029B
:10425000C3007AE74FF47E737E2276E741F00103D4
:104260006B60016055E700BF58010020500100203D
:1042700068090020024B0146186800F003B800BF2F
:10428000200000202DE9F04F01F10B05162D064608
:1042900083B024D8102900F2AD8000F0A7FA1025D1
:1042A00018234FF0020CB84F3B445C68A3F108029E
:1042B000944200F01D8130466368E268A16823F0F3
:1042C0000303CA60234491605A68083442F0010233
:1042D0005A6000F091FA204603B0BDE8F08F35F047
:1042E000070500F18780A94200F2848000F07EFA81
:1042F000B5F5FC7FC0F06F816B0A7FD0042B00F214
:104300001E81AB0903F1390C03F1380E4FEACC00E2
:104310009D4F384444680838A04207D10DE0002A78
:10432000E16880F2DF80884207D00C46636823F0A2
:1043300003035A1B0F2AF2DDF446DFF850823C6972
:10434000444500F0BC80636823F00309A9EB050332
:104350000F2B00F34581002BC7E9048880F22F81E1
:10436000B9F5007FD7F804E080F0C98001234FEA57
:10437000D9014FEA5919194403FA09F357F83120C2
:104380004EEA030E07EBC103083BA260E360C7F8E7
:1043900004E047F83140D46001204FEAAC03984074
:1043A000704532D810EA0E0F07D12CF0030C4000F4
:1043B00010EA0E0F0CF1040CF9D007EBCC0AD6462C
:1043C000E146DEF80C300BE059681C4621F0030191
:1043D0004A1B0F2ADB6800F3BF80002A80F2E280CC
:1043E0009E45F1D109F1010919F0030F0EF1080EF4
:1043F000E7D11FE10C23336000246CE74FF4007019
:104400004FF0400C4FF03F0E82E7BC68636823F02A
:104410000309A94503D3A9EB05030F2B52DC5C4B21
:1044200008201B6803F1100804EB0903009303F054
:10443000A7FD584A83461368A844013305D008F104
:10444000FF388044434203EA08084146304603F0FF
:1044500071FDB0F1FF3F82464E4A00F0DC8004EB74
:104460000903834200F2D5804B4B0BF1FF311868F2
:1044700040448446186040F0FB801AEA010F40F087
:10448000F780D7F808A0C84448F00102CAF8042011
:104490005446424B1968814238BF1860404B196836
:1044A000814238BF186022F00308A845A8EB050335
:1044B00001D30F2B06DC304600F09EF99CE7D7F8BD
:1044C00004E069E7621943F0010345F00105656006
:1044D0003046BA600834536000F08EF9204603B0CD
:1044E000BDE8F08FA2683046D16023448A60EBE6D5
:1044F000DC68A3427FF4DFAE0CF1020C1DE7B9F5D6
:10450000206F4FEA59227DD3142A00F2118102F163
:104510005C03DB005B32F918FB580839994203D180
:10452000ECE09B68994204D05A6822F003024A45A5
:10453000F7D8D968C4E902318C60DC602CE7142B11
:104540006CD9542B00F2FD802B0B03F16F0C03F19F
:104550006E0E4FEACC00DBE6D4F808C03046661990
:1045600045F001056560CCF80C30C3F808C042F096
:104570000103C7E90466C6E902887360625000F06F
:104580003BF90834A7E600BF580100206001002075
:10459000680900204C01002038090020640900202F
:1045A0006009002021444A68304642F001024A6016
:1045B00054F8082FD3609A6000F01EF98BE6A144EE
:1045C000D9F80430304643F00103C9F8043000F054
:1045D00013F908347FE64FEAD50C05F1080362E6CB
:1045E000621943F0010145F0010565603046C7E9F5
:1045F0000422C2E90288516044F8093000F0FCF856
:10460000083468E64FEA991202F13903DB003832C8
:1046100081E7BC4224D0BC68626844E703F15C0CCB
:1046200003F15B0E4FEACC0072E65AF808395345A5
:1046300040F0D8801CF0030F0CF1FF3CF5D17B68F3
:1046400023EA00037B60400098423FF6DEAE18B9D3
:10465000DBE6400009F104091842FAD0CC46ACE68A
:10466000614B0BF1FF31186808EB000CC3F800C078
:104670001068013070D004EB0902AAEB0202624418
:104680001A601AF00702CDE9002340D0C2F10802F7
:104690009244D04408EA01005A44121A02EA010B7B
:1046A0005946304603F046FC421C019B71D0A0EBFA
:1046B0000A0000EB0B08186848F001025844BC429D
:1046C000C7F808A01860CAF804203FF4E1AEB9F1B9
:1046D0000F0F44D94FF0050C6168A9F10C0222F0CC
:1046E000070201F00101114361600F2A04EB02018E
:1046F000C1E901CC55D8DAF80420C9E601209210AE
:1047000000FA02F24EEA020EC7F804E012E70AEBE2
:1047100008020A40ABEB020202EA010B594630469E
:1047200003F008FC431C019BC1D1DDF800B0C2E7D7
:10473000542A18D84FEA193202F16F03DB006E32A7
:10474000E9E6B3F5AA7F18D8EB0B03F1780C03F177
:10475000770E4FEACC00DBE5C2F800A091E7012319
:10476000CAF80430A7E6B2F5AA7F25D84FEAD932B5
:1047700002F17803DB007732CDE640F254529342E7
:1047800025D8AB0C03F17D0C03F17C0E4FEACC0075
:10479000BEE5009A4FF0000B083A9044A8EB0A08D7
:1047A00089E7304604F108010093FFF767FC009B9E
:1047B000D7F808A018689EE740F254539A420DD8E3
:1047C0004FEA994202F17D03DB007C32A3E64FF40D
:1047D0007E704FF07F0C4FF07E0E99E54FF47E73A4
:1047E0007E2298E67B682EE7380900200148FFF713
:1047F000D5BB00BF280900200148FFF7D1BB00BF8F
:10480000280900202DE9F04FDDB0914609911C46A2
:1048100083460F9303F064FB03681846199303F073
:1048200009FC0822189000212CA8FFF7E1FABBF13F
:10483000000F04D0DBF83430002B01F03480099BEA
:104840005A6EB3F90C30D50702D4980540F1698649
:10485000990407D4099943F400534A6E8B8122F4DA
:1048600000524A661A0740F1C880099A1269002A64
:1048700000F0C38003F01A020A2A00F0CD80002362
:1048800000249E46CDE93133002333AACDE9163406
:10489000DA4614464D46CDE91BEE3092CDF868E07D
:1048A000CDF880E0CDF874E0CDF82CE0CDF848E00C
:1048B0002F468B4BD3F8E46003F00CFB0DF1B00CEA
:1048C00003463A46504628A9CDF800C0B047002814
:1048D00000F0C180C0F2B780289B252B01D007448F
:1048E000E7E7B7EB0508064640F0B98000224FF035
:1048F000FF3393460A937B787E1C8DF897200C92A9
:1049000099460136A9F120035A2B00F2EB80DFE82B
:1049100013F0F702E900E900F302E900E900E90019
:10492000D502E900E9006A006602E90062026F024E
:10493000E9006B025B005B005B005B005B005B00FF
:104940005B005B005B00E900E900E900E900E900C9
:10495000E900E9006101E900F1013503610161014C
:104960006101E900E900E900E9003103E900E9003B
:104970000103E900E900E9000A02E9001F03E90078
:10498000E900C806E900E900E900E900E900E900FA
:10499000E900E9006101E900F1013B026101610107
:1049A000610115033B02ED01E9004D03E900BB0283
:1049B000C3068C02ED01E9000A027200C506E90097
:1049C000E900E906E90072000022A9F1300316F8B7
:1049D000019B02EB820203EB4202A9F13003092B97
:1049E000F5D90C928EE70F9B53F8042B002A0C92FA
:1049F0000F93C0F2ED81337882E7099D584629462E
:104A000003F0E4F8002841F09D83B5F90C3003F081
:104A10001A020A2A7FF433AF0999B1F90E20002A4D
:104A2000FFF62DAF4A6ED50702D4980541F1E2801A
:104A300023464A465846099901F0DCFC0B900B9836
:104A40005DB0BDE8F08F082200212CA8FFF7D0F957
:104A5000012007442DE7B7EB0508064610D0329B2E
:104A6000C4E9005843443293319B0133072B3193FF
:104A700010DC08340B9B43440B93002E7FF436AFBD
:104A8000329B002B41F08F800022099B3192B3F9B9
:104A90000C3019E05046099930AA01F027FD80B981
:104AA00033ACE7E75046099930AA01F01FFD002812
:104AB00000F08580D3460E9B1BB158460E99FFF738
:104AC000DDFA099BB3F90C30099A526ED10740F117
:104AD00003815B0601F142830B985DB0BDE8F08F66
:104AE000600500201096B9F1000FC9D00123002203
:104AF0008DF80C91069343AD8DF897200D93CDE979
:104B000013220E920A9211921BF0020302D0069910
:104B1000023106911BF08408329E05D10C9906984B
:104B20000F1A002F00F39B806AB101226260319A54
:104B3000013601320DF19701072A32963192216038
:104B400000F3BE83083463B102236360319B0236F5
:104B5000013326AA072B32963193226000F3BD83DE
:104B60000834B8F1800F00F0C2820A9B0D9A9F1A98
:104B7000002F00F3FD821BF4807F40F021820D9B0B
:104B800025601E446360319B32960133072B3193BD
:104B900000F32F8308341BF0040F05D00C9B069AFA
:104BA0009D1A002D00F3A483DDE90B3206998A4299
:104BB000ACBF9B185B180B93002E7FF473AF0023E0
:104BC00031930E9B1BB150460E99FFF757FA33AC49
:104BD000109D6DE60F9B1096073323F00703F3E853
:104BE00002670F9327F000431F931E964FF0FF328A
:104BF000DDE91E01AC4BCDE91667FCF799FA0028F8
:104C000040F0F484DDE91E014FF0FF32A64BFBF7C4
:104C1000A5FC002840F0EA840022002330463946F3
:104C2000FBF792FC002841F0F1809DF897200021CD
:104C300003209E4D9E4B2BF0800B0E910690B9F1F8
:104C4000470FD8BF1D46CDE913110A910D90119160
:104C5000002A3FF459AF069B0133069354E7102F07
:104C6000319A41F3F481DFF84CC221463046099C69
:104C70002E46CDF854C06546219304E0103F102F16
:104C800001F1080116DD102301321030072ACDE9A9
:104C900031200D604B60F1DD2146504630AA01F015
:104CA00025FC00287FF406AFDDE93120103F102FEE
:104CB00033A9E8DC35460C460646219B013215999E
:104CC0003E44072ACDE931262160676000F3DB8589
:104CD0009DF89720083427E79A053FF5FAAE099C1E
:104CE000A06DFFF75DF9B4F90C30F2E633784BF0C4
:104CF000200B05E60F9BB9F1430F109603F1040654
:104D000000F01C851BF0100F40F018850F9B43AD81
:104D10001B688DF80C31012306930D9300220F962A
:104D20008DF89720EBE600230F9F109657F8045B51
:104D30008DF89730002D00F0F084B9F1530F00F09A
:104D4000C8851BF01003119340F0C3850A9B002B0C
:104D5000C0F216871A462846119903F01FF90E90E3
:104D6000002801F0A5820E9B11995B1B0D9323EA8D
:104D7000E3734FF07309CDE913119DF897200F9756
:104D80000A9106930E9163E71BF0200F109600F036
:104D9000FC800F9B073323F007031846596850F82F
:104DA000083B0A460F900029C0F2FF830A990029A8
:104DB000C0F2728253EA02012BF0800740F06D824C
:104DC0000A9A002A40F06E82BB460D925CAD65E106
:104DD0000C9B5B420C9333784BF0040B90E52B2338
:104DE0008DF8973033788BE533784BF0800B87E57F
:104DF000314611F8019BB9F12A0F01F0CD82A9F1DA
:104E00003003092B98BF002201F2298111F8019B80
:104E100002EB820203EB4202A9F13003092BF5D920
:104E200042EAE2730E460A936CE547F630030F9AA6
:104E3000ADF8983052F8043B02210F924FF07809F8
:104E400000221D4810964BF002071A9000200A9D80
:104E50008DF89700002DC0F20A8153EA020027F076
:104E6000800B40F00381002D40F02285002940F0A6
:104E7000998417F001030D9300F0858330230DF220
:104E80006F158DF86F3109E11BF0200F109600F0BF
:104E900095830F9B0B9A1B681A60D2175A600F9B61
:104EA00004330F9394E600BFFFFFEF7FACB600081A
:104EB000A8B6000860B80008B8B60008504603F06D
:104EC0000FF8436818461D9303F0B4F82090074686
:104ED000504603F005F883681B93002F3FF48BAD19
:104EE0001B9A3378002A3FF40BAD1278002A3FF466
:104EF00007AD4BF4806B03E533784BF0010BFFE417
:104F00009DF897203378002A7FF4FAAC20228DF8A0
:104F10009720F5E410964BF0100B1BF0200200F0E8
:104F2000E3820F9B073323F0070319465A6851F8B1
:104F3000083B0F9100212BF4806787E73378682BBB
:104F400003BF73784BF4007B01364BF0400BD7E482
:104F500010964BF0100717F0200200F0D4820F9B40
:104F60000121073323F0070318465A6850F8083B1D
:104F70000F906BE733784BF0080BC1E44BF0100B4C
:104F80001BF0200F10967FF404AF0F9A1BF0100F48
:104F900052F8043B0F9240F003831BF0400F00F0E7
:104FA000FB8243F3C03211461BB2FCE633786C2B14
:104FB00003BF73784BF0200B01364BF0100B9FE4CE
:104FC000B9F1650F40F32081DDE9160100220023CD
:104FD000FBF7B0FA002800F0C68101236360319B23
:104FE000B54A01330136072B32963193226000F324
:104FF00064840834279B129A934280F29A82189B09
:10500000199A1E44C4E90023319B32960133072BC1
:10501000319300F377830834129B5D1E002D7FF7D8
:10502000BAAD102D319B40F3D880DFF89092102755
:10503000DDF82480CDF8549004E00834103D102DA4
:1050400040F3CD8001331036072BC4E90097CDE93A
:105050003136F2DD4146504630AA01F047FA0028C9
:105060007FF428ADDDE9313633ACE7E75F4601294F
:1050700000F0138102295CAD1ED11A9803F00F01D4
:10508000415C1B0943EA0273120905F8011D53EA4A
:105090000201F3D1BB465CAB5B1B0D930A9A0D99E1
:1050A00000238A42B8BF0A46CDE9133306920E9315
:1050B0009DF897201193CBE503F00701DB0843EA45
:1050C0004273D208303153EA0206284605F8011D22
:1050D000F2D1FE07DED53029DCD03023023805F8C6
:1050E000013C5CAB1B1ABB4605460D93D6E70C9BF7
:1050F000069A9F1A002F7FF738AD102F319B41F38E
:1051000084806E48224631464FF010080646099CBE
:10511000159004E0103F102F02F1080215DD013355
:105120001031072BC2E90068CDE93131F2DD2146AB
:10513000504630AA01F0DAF900287FF4BBACDDE973
:105140003131103F102F33AAE9DC14460E460133EB
:10515000159A3E44072BCDE931362260676000F393
:10516000C5820A9B0D9A08349F1A002F7FF703AD62
:10517000524A102F319B159223DD32464FF0100812
:105180002E46099D04E0103F102F04F1080416DD9F
:1051900001334A491032072BC4E90018CDE93132F6
:1051A000F1DD2946504630AA01F0A0F900287FF42D
:1051B00081ACDDE93132103F102F33ACE8DC3546ED
:1051C00016460133159A3E44072BCDE9313622604D
:1051D000676000F37D810834CDE4384A1592159A52
:1051E00001332E44072B22606560CDE931367FF70D
:1051F000D1AC5046099930AA01F078F900287FF423
:1052000059AC329E33ACC6E4129B319F012B06F1A0
:10521000010607F1010704F1080940F31581012394
:10522000072FCDE931762560636000F3CC82189BAF
:105230000137199A1E44072FC9E90023CDE93176B9
:1052400000F3B48209F10809129B0022DDE916017E
:105250005C1E0023FBF76EF9002840F00E81013739
:1052600001352644072FCDE93176C9F80050C9F839
:10527000044000F3F58009F108091C9B01371E4426
:10528000C9F80430072F2AABCDE93176C9F80030D0
:10529000AFDC09F108047EE45F460A2B72F10001DD
:1052A00080F09E8230338DF86F310123BB460D9321
:1052B0000DF26F15F2E600BFE8B6000850B800081E
:1052C0005046099930AA159301F010F900287FF48F
:1052D000F1AB329E159B33AC35E45046099930AAA8
:1052E00001F004F900287FF4E5AB329E33AC38E4DA
:1052F000102D319B40F33787DFF8E4821027DDF86B
:105300002490CDF8548004E0103D102D04F10804E1
:1053100015DD01331036072BC4E90087CDE931369E
:10532000F2DD4946504630AA01F0E0F800287FF44B
:10533000C1ABDDE93136103D102D33ACE9DC013372
:10534000159A2E44072BC4E90025CDE931367FF7A5
:105350002BAC5046099930AA01F0C8F800287FF418
:10536000A9AB329E20E42799002940F3E780DDE9CC
:1053700011839845A8BF9846B8F1000F0ADD319B0C
:1053800046440133072BC4E900583296319300F3A9
:1053900045860834119FB8F1000FA8BFA7EB080796
:1053A000002F00F31E83DDF844901BF4806FA944A6
:1053B00040F05185279B129A9342C0F2D7811BF08F
:1053C000010F40F0D381129AAF18A7EB0907D51A45
:1053D000AF42A8BF2F46002F0BDD319B3E44013367
:1053E000072BC4F8009067603296319300F37A86F9
:1053F0000834002FA8BFED1B002D7FF7CCAB102D7C
:10540000319B7FF7EAAEDFF8DC911027DDF82480CE
:10541000CDF8549004E00834103D102D7FF7DFAE36
:1054200001331036072BC4E90097CDE93136F2DDA0
:105430004146504630AA01F059F800287FF43AABB3
:10544000DDE9313633ACE7E71BF0010F7FF4E7AE5F
:105450000123072FCDE93176256063607FF70DAF1B
:105460005046099930AA01F041F800287FF422AB98
:10547000DDE931760DF1CC09FFE6129B012B7FF7B8
:10548000FCAE112B40F39B87564BCDF828B010256E
:105490009B46DDF82480159305E009F10809103CCE
:1054A000102C40F3C48201371036072FC9E900B52C
:1054B000CDE93176F1DD4146504630AA01F016F8CB
:1054C00000287FF4F7AADDE931760DF1CC09E6E793
:1054D0005046099930AA01F009F800287FF4EAAA99
:1054E000329E33ACFFF747BB0F9951F8043B0F9145
:1054F0001BF010017FF41EAD1BF0400000F0A682EF
:105500000A469BB216E50F9951F8043B0F9117F02C
:1055100010013FD117F0400037D00A469BB201215D
:1055200094E4099DA86DFEF739FDB5F90C30FFF73D
:105530008FB91BF0010F3FF42EAB60E501236360D0
:10554000319B294A01330136072B32963193226071
:1055500000F347850834002940F02482129A0BF0AA
:10556000010313433FF417AB189B199A1E44C4E977
:105570000023319B32960133072B319300F32D83A7
:1055800004F108021FE25CAD88E517F400721CBF4D
:105590000246DBB2012159E41BF4007F40F0EA82AD
:1055A000DA1711460029BFF601AC5B425F464FF0A7
:1055B0002D004FF0010162EB420248E41BF0100F96
:1055C00040F0EA811BF0400F40F0CE821BF4007FD8
:1055D00000F0E2810F9B0B9A1B681A705FE400BF1A
:1055E00060B8000850B80008E8B60008DDE9160108
:1055F00002460B46FBF79CFD002840F04086B9F1BF
:10560000610F00F00985B9F1410F00F0D6820A9BC5
:10561000013300F0FE8529F02003472B00F0B78509
:105620000E90DDE91612002A13464BF48078C0F282
:10563000C48400231593DDE91623CDE92223A9F1C3
:105640004103252B00F20F82DFE813F01E030D0249
:105650000D020D02D902AB030D020D020D020D0267
:105660000D020D020D020D020D020D020D020D02C2
:105670000D020D020D020D020D020D020D020D02B2
:105680000D020D020D020D020D020D021E030D0290
:105690000D020D02D902AB0310963EE45F46109650
:1056A00059E4B94B10961A931BF020026CD00F9B53
:1056B000073323F0070319465A6851F8083B0F9146
:1056C0001BF0010F09D053EA020106D030218DF8FA
:1056D00099904BF0020B8DF8981002212BF4806703
:1056E000FFF7B4BBA94B10961A93DDE75046099912
:1056F00030AA00F0FBFE00287FF4DCA9329E33AC18
:10570000FFF733BA5046099930AA00F0EFFE00289F
:105710007FF4D0A9329E33AC7EE40A9B2946062B47
:1057200028BF06232A460A950E95CDE91311984DF8
:1057300006930F970D931191FFF78ABA0822002163
:105740002EA8FEF755FB0F9A43AD2EAB29465046C7
:10575000126804F081FA034601330D9000F02786A9
:105760000D9B23EAE3730693FFF7D8BA189A1999A9
:105770001644C4E90012319A32960132072A319256
:1057800000F3588408341EE60F9951F8043B0F913A
:105790001BF0100194D11BF0400000F05E810A461E
:1057A0009BB28DE70A9B5CAD0D9377E45046099957
:1057B00030AA00F09BFE00287FF47CA9DDE9317659
:1057C0000DF1CC0940E55046099930AA00F08EFE53
:1057D00000287FF46FA9DDE931760DF1CC0926E5CB
:1057E00007F48061CDE90D744FF0000E0F46DFF82D
:1057F000A4B11B9C0DF5B87CCDF8189006E00A2BDF
:1058000072F1000237D343463246AC46991841F153
:105810000001ABFB010626F0030000EB96004FF001
:10582000CC36091A581A06FB00F662F10009A0FBF3
:105830000B800BFB09660644052008F00109A9FB53
:10584000000940184FEA5808303048EAC6780EF18F
:10585000010E0CF1FF350CF8010C7608002FCED0AC
:1058600021788E45CBD1BEF1FF0FC8D00A2B72F143
:10587000000280F0BE821B94DDF818900D9F0E9CF4
:10588000CDF848E006E45046099930AA159300F097
:105890002DFE00287FF40EA99DF89720329E159BBF
:1058A00033ACFFF741B95846FEF728F9FEF7C7BFFA
:1058B00001295F467FF4DEABF4E45046099930AA33
:1058C00000F014FE00287FF4F5A8329E33ACFFF7F9
:1058D00091BB0DF1B8080822002140462995FEF73A
:1058E00087FA0A9B002BC0F2758200260697CDF836
:1058F00034B037469B460FE04346504643A904F078
:10590000ABF9431C06F10406384400F08C8458457A
:1059100006DC00F0AD840746299B9A59002AEBD19A
:10592000DDF834B00D97069F0D9B002B00F04D83E2
:10593000632B40F31C845046591CFEF7A3FC05461C
:10594000002800F04B850E90082200214046FEF70B
:105950004FFA0D9E294633465046CDF8008029AABD
:1059600004F0A0F9864240F0328500230D9ACDE97B
:10597000133322EAE271AB549DF897200F970691FA
:105980000A931193FFF764B9CCB60008B8B60008C3
:10599000E0B60008CDCCCCCC0F9B0B9A1B681A60EC
:1059A000FFF77DBA189B199A1E44C4E90023319B66
:1059B00032960133072B319300F30F8104F1080273
:1059C0000029C0F29E83129901330E44072BCDE9C2
:1059D0003136156051603FF70CAC02F10804FFF757
:1059E000DAB8102F319B40F3C184A54932464FF0FD
:1059F00010090E46DDF82480159104E00834103FAC
:105A0000102F40F3D98101331032072BC4E900690C
:105A1000CDE93132F2DD4146504630AA00F066FD54
:105A200000287FF447A8DDE9313233ACE7E7DDF841
:105A300028B00137159B2644072FCDE93176C9F8E8
:105A40000030C9F804407FF716AC09E51BF400727A
:105A50001CBF0246DBB2FFF76DBA1BF400721CBF1D
:105A60000246DBB22CE60A9B5046019302230093C8
:105A70002EAB049329AB039327AB0293DDE92223DA
:105A800002F01AFC1BF0010F054640F0E4822E9B49
:105A90001B1A1293279B1193119BDA1C03DB0A9AA2
:105AA0009A4280F2B881119BA9F10209013B0021C1
:105AB00027935FFA89F2002B8DF8A820B6BF2D221C
:105AC0002B22119B8DF8A920B8BFC3F10103092B2C
:105AD00040F375830DF1BF073A46DFF8A8C11E46B3
:105AE0001046ACFB0321C90801EB8102A3EB420283
:105AF0003032632E00F8012C0B4600F1FF32EEDC51
:105B0000303302F8013C831EBB4280F01D840DF14E
:105B1000A90213F8011BBB4202F8011FF9D15CABCB
:105B2000181AA0F1AD031C93129B1C9A012B1A4466
:105B30000D9240F373830D9B189A13440D932BF42D
:105B4000806343F4807B00230D9A149322EAE2726F
:105B5000069213931193159B002B40F026819DF81C
:105B600097200A93FFF774B80F9B0B9A1B681A8053
:105B7000FFF795B943F3C01211465BB2FFF713B9B3
:105B8000284602F057FA119B20EAE0714FF07309A2
:105B9000CDE913339DF897200F970D900A93069146
:105BA0000E93FFF755B85046099930AA00F09EFCB5
:105BB00000283EF469AFFEF784BF58238DF8993072
:105BC00030238DF898300A9B4BF0020B632B00F3C7
:105BD0001183002343AD0E9323E55046099930AA63
:105BE00000F084FC00287EF465AFDDE931362799AA
:105BF00033AAE5E6886DFEF7D3F9FEF719BF022355
:105C00000A9A0132069200932EAB069E049329ABAA
:105C1000039327AB019602935046DDE9222302F05D
:105C20004BFB29F02007462F054618BF45270644A1
:105C300005D12B78302B00F01782279B1E440022C1
:105C4000DDE922010023FAF775FC002840F04682C6
:105C50002E9BB34206D230215A1C2E9219702E9BD5
:105C60009E42F9D8279A11925B1B472F12933FF45B
:105C700013AF462F00F00682119B013B17E700BFD0
:105C800050B80008CDCCCCCC27AADDE9220102F027
:105C9000FFF900224FF07F53FBF738F802460B461E
:105CA000CDE9062300220023FAF744FC08B10123C2
:105CB00027930A9BB54A591EB54BCDE91194B9F10A
:105CC000610F08BF1A462E46CDF834B01395D3465F
:105CD000DDE90645894692460A9207E00022002344
:105CE000FAF728FC002840F0FF82B9460022A94BB1
:105CF00020462946FBF70AF80D460446FBF72EFA24
:105D00008046FAF757FB02460B4620462946FAF72B
:105D100003FA1AF80830B9F1FF3F324604460D463F
:105D200009F1FF3706F8013BD8D117469A4B0022FC
:105D3000CDE90645DA46DDF84490129CDDF834B032
:105D4000139DFAF71FFC002800F002830A992E9792
:105D500016F8012CC97B33468A4209D1302003F85A
:105D6000010C2E9B5A1E2E9213F8012C8A42F6D05B
:105D7000392A0BBF0A9A0132927AD2B203F8012C67
:105D800033465B1B1293279BB9F1610F119303F10B
:105D9000FF33279300F0BC8250224FF041090121CC
:105DA00089E60A9B069303232DE72D2200238DF815
:105DB00097200A93FEF74FBF16460133159A3E44CB
:105DC000072BCDE931362260676000F30782083483
:105DD000FFF7E9BA002350461946CDF8008029AAFA
:105DE00003F060FF034601330D9000F01C822995FB
:105DF0009AE5209B1D99ED1A1A46284602F034F8C0
:105E0000637803B101344FF0000EFCE42D228DF8CD
:105E10009720FEF70CBFDDE91123934200F3AC811C
:105E20001BF0010F119B00F05082189A13440D9340
:105E30001BF4806F00F03982119B4FF06709002B33
:105E400000F334810D9B23EAE37306930023C346DA
:105E5000CDE913337FE6129B2246EB180A93139B7E
:105E60004C46002B3146DDF85080CDF844B0DDF8CB
:105E70006C90209EDDF824B014952EDDB8F1000F53
:105E80007DDD08F1FF3831981D9B01303144072832
:105E9000C2E900363291319066DC08320A9B99F8EB
:105EA00000001F1B8742A8BF0746002F0BDD31985B
:105EB000394401300728C2E90047329131906FDC44
:105EC00099F800000832002FB4BF0546C51B002D0D
:105ED00015DC0444139B002BD0DCB8F1000FD0DCA0
:105EE000CDF86C90A146149D129B1446EB18994571
:105EF0000E4628BF9946DDF844B0FFF75BBA102D77
:105F00003198264B23DD0D9410272C461D4604E0C6
:105F1000103C102C02F1080216DD01301F4B10312D
:105F20000728C2E90037CDE93101F1DD5946504675
:105F300030AA00F0DBFA00287EF4BCADDDE93101C7
:105F4000103C102C33AAE8DC2B4625460D9C013072
:105F500029440728CDE93101136055604EDC99F8DA
:105F6000000008320444B5E75946504630AA00F014
:105F7000BDFA00287EF49EAD329933AA8EE7139BBA
:105F800009F1FF39013B13937DE700BFCCB6000850
:105F9000B8B60008000030400000E03F50B80008EC
:105FA0005946504630AA00F0A1FA00287EF482AD8E
:105FB00099F80000329933AA85E722912D2103F147
:105FC000004315912393FFF73ABB0D9B9DF8972053
:105FD000CDE913330F9706930A9311930E93FEF7AF
:105FE00037BE5046099930AA00F080FA00287EF4A6
:105FF00061AD2799329E33ACFFF7ADBA5946504692
:1060000030AA00F073FA00287EF454AD99F800002D
:10601000329933AA04445DE77823CFE550460999C5
:1060200030AA00F063FA00287EF444AD329E33AC0F
:10603000FFF7B0B95046099930AA00F057FA002886
:106040007EF438AD279B329E33ACFFF7BCB9B14923
:106050001591FEF733BE0A9B4727C618EFE50023CC
:106060000E460A93FEF74EBC0022DDE92201002312
:10607000FAF760FA002800F05581279B1E4411931F
:10608000731B129311990A9A0BF00103002943EA3A
:10609000020340F36E81002B40F0D1804FF066097F
:1060A000119B0D931BF4806F3FF4CCAE1B990B78C2
:1060B000FF2B00F088810026119A304604E0013061
:1060C0000131FF2B00F0C380934280F2C080D21ACE
:1060D0004B78002BF3D10B780136F2E7279A334641
:1060E0001192C1E55046099930AA00F0FFF9002845
:1060F0007EF4E0AC279D129B329E33AC5D1BFFF714
:1061000078B94F4210314CDADFF80C821024CDF808
:10611000548003E00832103F102F44DD0133103665
:10612000072BC2E90084CDE93136F3DD50460999E9
:1061300030AA00F0DBF900287EF4BCACDDE9313692
:1061400033AAE8E7099B5B6EDF0707D4099B9B89AD
:106150009E0503D4099B986DFDF722FF4FF0FF3396
:106160000B93FEF7B9BC6B4A1592FFF7E8B8002312
:1061700043AD0E93FFF7E8BB129B189A9A18119B38
:106180000D92002B40F3A3804FF067098AE70A9B2A
:10619000002B7FF445AA0A9B0E9301230A93FFF775
:1061A00040BA5D491591013315993E44072BCDE95D
:1061B00031361160576000F3BA80083203E40029D9
:1061C00040F08F8030228DF8AA200DF1AB023033E1
:1061D00002F8013B2AABD31A1C93A5E45046099957
:1061E00030AA00F083F900287EF464AC329E33AC10
:1061F000FFF7D9B85046591CFEF744F80546002869
:1062000000F0D5800E90FFF70CBA434A1592FEF7C6
:106210009EBF06230E900A93FFF703BA1BF0010FEF
:106220003FF48DAC87E40022D346099B0E92B3F96C
:106230000C3043F04003099A9381FEF73CBC1346AF
:10624000189A4FF0660913440B440D932AE7CDE9E1
:1062500013061B911192DDE91332209913440D9A14
:10626000C34601FB03230D9323EAE373069372E411
:106270000A9BDDF834B0069F0D93FFF755BB179BC3
:106280000320002BB8BF2D224FF00003A8BF9DF8BC
:10629000972019460E93214D214BB8BF8DF89720BA
:1062A0002BF0800B0690FEF7CABC4FF06709C9E5DA
:1062B0000A9B4FF07309CDE913009DF897200F97C3
:1062C00006930D930A90FEF7C3BC0D93B0E5C3F19E
:1062D00001031A4422EAE2734FF067090D92069314
:1062E000B4E50DF1AA0272E749460029DA46129C8C
:1062F000DDF84490DDF834B0139DFFF641AD4B1C42
:1063000030223146334401F8012B8B42FBD138E572
:10631000702244E560B8000850B80008B4B6000820
:10632000B0B60008069BC3F10103279386E45046EC
:10633000099930AA00F0DAF800287EF4BBABDDE959
:10634000313633AAFFF73FBB02231C93FFF7ECBBA8
:106350000022DDE90601254BFAF7ECF800283FF4AE
:106360000FAD18F0010F3FF40BADEFE4204A15928A
:1063700023E52BB901234FF0660906930D9365E5DC
:10638000189B4FF0660903F1010B0A9B5B440D93C8
:1063900023EAE373069359E50F9A73780E4652F891
:1063A000041B0F9241EAE1720A92FEF7A9BA099A18
:1063B000B2F90C3043F040039381FEF785BB0C4BE0
:1063C0001593FFF736BB0023CDE9133343E7099B51
:1063D000D346B3F90C3043F040032CE7099BD34676
:1063E000B3F90C300E9043F0400324E70000E03F87
:1063F00050B80008F0B54FF480640026ADF26C4D43
:106400001AADCDE905461F4606460095049515468A
:106410008B8916A823F00203ADF80C304B6E029462
:106420001993CB890C46ADF80E30CB6907934B6AB4
:106430000993FDF7AFFD2A463B4669463046FEF715
:10644000E1F9051E07DB6946304601F081F90028B5
:1064500018BF4FF0FF35BDF80C305B0603D5A3899C
:1064600043F04003A3811698FDF796FD28460DF2F0
:106470006C4DF0BD2DE9F84F4B6E90469C042ED527
:10648000936812684BB30D46064602F1080959E9B4
:10649000022A5FEA9A0716D00024A2F1040B01E059
:1064A000A7420ED02A4630465BF8041F01F02EFCAE
:1064B000431C04F10104F3D10023C8E90133BDE812
:1064C000F88FD8F808302AF0030AA3EB0A03C8F8BB
:1064D000083009F10809002BD9D10020ECE701F0C0
:1064E00061F90023C8E90133BDE8F88F10B494685E
:1064F00014B110BCFFF7BEBF2046546010BC7047FB
:1065000084462DE9F04F0E461546E146C7B016AF5A
:106510000822002138461C46CDE906560B93FDF7AC
:1065200067FCB9F1000F04D0D9F83430002B00F02B
:10653000D086079A536EB2F90C20DE0702D4950577
:1065400040F1A485900407D4079942F400524B6EA1
:106550008A8123F400534B66110740F1BD80079BED
:106560001B69002B00F0B88002F01A030A2B00F020
:10657000C28000231DAA9246CDE91B33CDE910331A
:10658000DFF844B21A920E9308930F93069DDBF83E
:10659000E44001F09FFC2A46034614A948460097B0
:1065A000A047002800F0C680C0F2BC80149B252BB9
:1065B00001D00544EBE7069B0446EE1A40F0BE808E
:1065C00000234FF0FF32697805926C1C8DF84B3038
:1065D000099303930134A1F120035A2B00F2F680B2
:1065E000DFE813F01303F400F4000D03F400F400EB
:1065F000F400ED02F400F4006A003F03F40003022B
:106600002303F4001D035B005B005B005B005B0089
:106610005B005B005B005B00F400F400F400F4003E
:10662000F400F400F400F400F400B6014302F400B6
:10663000F400F400F400F400F400F400F400F400BA
:10664000F4000902F400F400F4008F01F4005C028D
:10665000F400F400F205F400F400F400F400F40097
:10666000F400F400F400F400F400B601DB01F400DF
:10667000F400F400AA02DB017400F400E402F40068
:10668000D5021506B3027400F4008F017200EF0505
:10669000F400F4001906F40072000022A1F13003A6
:1066A00014F8011B02EB820203EB4202A1F130035A
:1066B000092BF5D909928EE70B9B53F8042B002A7E
:1066C00009920B93C0F28E81217883E7039B217896
:1066D00043F0200303937DE7079D4846294601F0D8
:1066E00075FA002840F0D486B5F90C2002F01A03A0
:1066F0000A2B7FF43EAF0799B1F90E30002BFFF65D
:1067000038AF4B6EDE0702D4950540F18686DDE991
:1067100006212346484600F0E7FE0890089847B057
:10672000BDE8F08F082200213846FDF761FB01200B
:1067300005442CE7069B0446EE1A12D0069B1C9AD1
:10674000CAE900361B9B32440133072B1C921B9372
:1067500011DC0AF1080A089B33440893002C7FF4EB
:106760002FAF1C9B002B40F074860022079B1B92CE
:10677000B3F90C301CE0002A00F049844846079920
:106780001AAAFFF777FE80B90DF1740AE3E74846CD
:1067900007991AAAFFF76EFE002800F09D800C9B57
:1067A0001BB148460C99FDF769FC079BB3F90C3007
:1067B000079A526ED10740F19A805B0600F1748609
:1067C000089847B0BDE8F08F6005002006940029C6
:1067D000C7D000238DF84B3001238DF8B4100493FB
:1067E0002DAC0A9300260C960596039BDDE91B123F
:1067F00013F0840301F1010C60460D9305D1099B50
:10680000049D5D1B002D00F34F839DF84B3083B139
:1068100001230132CAF8043007280DF14B03CDE9FA
:106820001B02CAF8003000F3098301460AF1080A86
:106830000130D6B102230232CAF80430072813AB64
:10684000CDE91B02CAF8003040F31183002A00F0A2
:10685000FD83484607991AAAFFF70CFE00289ED12F
:10686000DDE91B120DF1740A481C0D9B802B00F012
:106870003B82059B0A9D5D1B002D00F38F820A9BC6
:1068800007281A44CDE91B02CAF80040CAF80430B0
:1068900040F32782002A00F05083484607991AAA3D
:1068A000FFF7E8FD00287FF47AAF1C9A0DF1740A17
:1068B000039B580705D5099B04995C1A002C00F32B
:1068C0004783DDE9083104988142ACBF5B181B188F
:1068D0000893002A7FF45BAF00231B930C9B1BB132
:1068E00019464846FDF7CAFB0DF1740A4EE69A05B3
:1068F0003FF563AF079CA06DFDF752FBB4F90C3078
:106900005BE700230B9E069456F8044B8DF84B3042
:10691000002C00F0F684532900F09A84039B13F0B6
:10692000100540F09584059B002BC0F27F851A4628
:106930002946204601F032FB0C90002800F07285B9
:10694000031B0A9323EAE3730C95049300F036BD0E
:106950000B9B4329069403F1040503D0039BDC063B
:1069600040F15D840822002118A8FDF741FA0B9A36
:106970002DAC18AB21464846126803F06DF903466A
:1069800001330A9000F07C850A9B23EAE3730493A9
:1069900000230B958DF84B3024E7039B0694980653
:1069A0006BD50B9B073323F0070318465A6850F842
:1069B000083B11460B90002AC0F25881059A002A24
:1069C000C0F26181039A22F08002039253EA01022D
:1069D00040F05981059B002B40F0398504930A93C0
:1069E00046AC62E1099B5B420993039B217843F02B
:1069F00004030393EEE5039B069443F0100111F0AA
:106A0000200200F007830B9B073323F0070318468F
:106A10005A6850F8083B0B90002021F480640394DE
:106A2000059C8DF84B00844263DB53EA020421F499
:106A3000906140F04C84039A0391059B002B50D148
:106A4000002840F01A8312F001020A9200F01A8323
:106A500030238DF817319DF84B3004920DF2171446
:106A6000002B40F027810C9329E1039B069443F00F
:106A700010030393039B980693D403990B9AC906BA
:106A800052F8043B00F17D8303994E0640F14384A4
:106A900043F3C0310B921BB20A468CE7039B06946A
:106AA00043F0100212F0200100F0C3820B9B073369
:106AB00023F007031846596850F8083B0B90002054
:106AC0008DF84B0005980028C0F2FA8222F0800071
:106AD000039053EA010040F0D680059B0120002B73
:106AE000AED0012800F0B384002302281A4600F03B
:106AF000C48146AC03F00701DB0843EA4273D208C5
:106B0000303153EA0205204604F8011DF2D1039BFF
:106B1000DD0740F1C081302900F0BD813023059AA6
:106B2000023804F8013C46AB1B1A9A42B8BF1A4619
:106B300004460A930492B8E02178039B682900F088
:106B4000CD8343F04003039344E5039B0B9A43F04A
:106B50000203039347F63003ADF84C3052F8043B80
:106B6000B4490B92002206940F9100218DF84B102E
:106B700005990029C0F28181039C53EA020024F0A8
:106B8000800140F0798122460220039155E7039B62
:106B900006949C0640F1FE820B9B089A1B681A60C3
:106BA000D2175A600B9B04330B93EFE42178039BBD
:106BB0006C2900F09A8343F0100303930AE54846DA
:106BC00001F08EF943681846119301F033FA1090E2
:106BD0000546484601F084F983680E93002D3FF482
:106BE00073AD0E9B2178002B3FF4F4AC1B78002B87
:106BF0003FF4F0AC039B43F480630393EAE4039B0C
:106C0000217843F001030393E4E49DF84B302178AD
:106C1000002B7FF4DFAC20238DF84B30DAE4039BAC
:106C2000217843F080030393D4E4204610F8011B3D
:106C30002A2900F04584A1F13003092B98BF0022D6
:106C400000F2FD8310F8011B02EB820203EB42020B
:106C5000A1F13003092BF5D942EAE273044605930A
:106C6000B9E42B2321788DF84B30B3E42D228DF835
:106C70004B20059A5B4261EB4101002A03DB039A3A
:106C800022F0800203920A2B71F1000280F01E8232
:106C90003033DBB28DF81731059B0DF21714012B41
:106CA000B8BF0123049301230A939DF84B30002BB6
:106CB0003FF4D9AE00230C93049B01330493039B50
:106CC00013F002063FF491AD049B022602330493B5
:106CD0008BE501230A9A1D941B931E921C920DF1C1
:106CE000740A0AF1080AE3E5099B049D5D1B002D67
:106CF0007FF7BFAD102D40F3DC83DFF83C81D44635
:106D000043461026A046DDF81CA01C4606E0881C61
:106D100019460CF1080C103D102D1ADD4B1C1032D9
:106D2000072BCCE90046CDE91B32F0DD002A7BD0F1
:106D3000514648461AAAFFF79DFB00287FF42FAD65
:106D4000DDE91B12103D102D0DF1740C01F1010055
:106D5000E4DC2346E246444698462A440728CDE927
:106D60001B02CAF80080CAF8045040F39781002A39
:106D700000F03083484607991AAAFFF77BFB0028EA
:106D80007FF40DADDDE91B12059B0A9D0DF1740A20
:106D90005D1B002D01F101007FF771AD102DDFF8B3
:106DA00098802EDDD4461026AA462546079C08E08A
:106DB000881C19460CF1080CAAF1100ABAF1100F40
:106DC0001CDD4B1C1C481032072BCCE90006CDE91A
:106DD0001B32EDDD1AB3214648461AAAFFF74AFBDB
:106DE00000287FF4DCACDDE91B12AAF1100ABAF12D
:106DF000100F0DF1740C01F10100E2DC2C46554638
:106E0000E2462A440728CDE91B02CAF80080CAF8E6
:106E1000045000F3EB800AF1080A01302FE501204D
:106E200011460DF1740CC7E7012011460DF1740CE9
:106E300071E700BFB8B6000870B800086AB14846EC
:106E400007991AAAFFF716FB00287FF4A8ACDDE922
:106E50001B120DF1740A481CEBE4002E00F0AB810C
:106E60000222012013AB1D930DF1740A1E920146FC
:106E70000AF1080A0130F8E403910F9846AC03F0D8
:106E80000F01415C1B0943EA0273120904F8011D5A
:106E900053EA0201F3D1059A46AB1B1B9A42B8BFD5
:106EA0001A460A93049200E7102D40F3CD82DFF8D2
:106EB000DC82D6461023A2464446DDF81C8008E05A
:106EC00001F1020C01460EF1080E103D102D1BDDE4
:106ED000481C10320728CEE90043CDE91B02EFDD44
:106EE0002AB3414648461AAAFFF7C4FA00287FF49D
:106EF00056ACDDE91B12103D102D4FF010030DF1C3
:106F0000740E01F1010CE3DCA04660465446F246E3
:106F10002A440728CDE91B02CAF80080CAF80450A9
:106F200000F3998001460AF1080A01306DE4114628
:106F30004FF0010C0DF1740EC7E7039B1B925C0729
:106F40004BD5099B04995C1A002C46DD0DF1740A9F
:106F5000102C1B9940F38782DFF8308210254646BB
:106F6000DDF81C8006E0881C19460AF1080A103C6E
:106F7000102C19DD4B1C1032072BCAE90065CDE936
:106F80001B32F0DD22B3414648461AAAFFF772FAD7
:106F900000287FF404ACDDE91B12103C102C0DF12D
:106FA000740A01F10100E5DCB04622440728CAE971
:106FB0000084CDE91B027FF784AC72B14846079983
:106FC0001AAAFFF757FA00287FF4E9AB1C9A78E475
:106FD000012011460DF1740AC9E70499DDE9083270
:106FE0008A42ACBF9B185B18089375E4002A3FF4F3
:106FF00070AE484607991AAAFFF73CFA00287FF4BA
:10700000CEAB1B981C9A0DF1740A013037E41B9229
:10701000FFF7BABB0B9811F0100450F8043B40F096
:10702000AE8011F0400500F0A68022460B909BB286
:10703000F2E40B9812F0100450F8043B38D112F02F
:10704000400531D021460B909BB238E50120114616
:107050000DF1740A09E4002A00F0EB804846079914
:107060001AAAFFF707FA00287FF499ABDDE91B1293
:107070000DF1740A481CFFF7C8BB059B46AC04938E
:107080000A9312E6059B46AC04930EE6079DA86D95
:10709000FCF784FFB5F90C20FFF754BA01460AF15A
:1070A000080A0130FFF7E5BB12F4007140F0988147
:1070B0000B9000208DF84B0005980028BFF606AD18
:1070C0000A2B039271F10002FFF4E2AD039A984695
:1070D00002F480624FF0000C13462D4D0DF58C7EAE
:1070E000CDF810A0CDF8289007E0B8F10A0F71F1A3
:1070F00000013BD3C8463146A64618EB010242F1D7
:107100000002A5FB020626F0030000EB96004FF0FC
:10711000CC36121AB8EB020006FB00F661F1000A49
:10712000A0FB059005FB0A660644052009F0010A4C
:10713000AAFB000A80184FEA5909303049EAC6799B
:107140000CF1010C0EF1FF340EF8010C7608002B47
:10715000CBD00E9A12786245C7D1BCF1FF0FC4D0D4
:10716000B8F10A0F71F1000180F0E180DDF810A0A4
:10717000DDF828908FE611F4007240F036810B9014
:107180004AE4D9170B920A4615E400BF80B80008FC
:10719000CDCCCCCC039BD80600F1AE80039B590626
:1071A00000F13181039B9A0540F1A6800B9B089A60
:1071B0001B681A70F6E4114601200DF1740AFFF7FE
:1071C00054BB039A06946DE4A94B06940F93039B5A
:1071D00013F0200264D00B9B073323F007031846FB
:1071E0005A6850F8083B0B90039CE6070AD553EA0F
:1071F000020007D08DF84D1044F0020103913021B8
:107200008DF84C10039921F480610391ADE403994A
:107210000694FFF7F4BB974B06940F93D7E70B9BAD
:107220002DAC1B688DF8B430012304930A93FFF74B
:10723000AFBB9DF84B30002B00F0DF8001200DF13B
:107240004B0302461D930DF1740A1E90FFF7EDBA31
:107250000822002118A81594FCF7CAFD059B002BF5
:1072600077DB0025CDF810A0A8469A460FE018ABB2
:1072700048462DA902F0F0FC431C05F104054044EA
:1072800000F0FE80504506DC00F016818046159B1C
:107290005A59002AEBD1DDF810A0CDF8288066E01D
:1072A000039C0B9814F0100450F8043B0DD1039A82
:1072B00012F0400203D022460B909BB294E7039C4D
:1072C00014F4007440F0968022460B908CE70391F2
:1072D0000FE44846FCF712FCFFF72BB943F40073A8
:1072E000617803930134FFF775B943F020036178A7
:1072F00003930134FFF76EB90B9B089A1B681A6061
:1073000050E4059B5C4C062B28BF0623CDE90A36CA
:107310000493FFF767BA03990B928D054CBF43F3B3
:10732000C011D9170A4648BF5BB2FFF744BB0C93A4
:10733000109B1199E41A1A46204600F095FD0E990B
:107340000C9B4A7812B10A4601320E924FF0000CA3
:10735000D0E618AB009300234846194615AA02F060
:10736000A1FC034601330A9000F08A8015940A9B21
:107370000BB3632B4DDD4846591CFCF783FF0446D5
:1073800000287DD00C900822002118A8FCF730FDC1
:107390000A9D18AB009321462B46484615AA02F0D9
:1073A00081FC854240F0978000230A9AA35422EA88
:1073B000E273049302E00A9B04930C939DF84B3014
:1073C0001BB100230B96059376E40B9605931E469E
:1073D000FFF70BBA012011460DF1740AFFF749BA05
:1073E00029460B90DBB2FFF76ABB2A460B90DBB253
:1073F000FFF712BB0B90DBB2F6E6114601200DF150
:10740000740AFFF716BA0B9B089A1B681A80FFF7DD
:10741000C9BB00232DAC0C93B5E7886DFCF7C0FD0C
:10742000FFF775B9059B04930A93C7E7204600F060
:1074300001FE20EAE0730C950A900493BEE7002356
:1074400004460593FFF7C7B8DFF8308060E53023C6
:1074500020E4484607991AAAFFF70CF800283FF4E1
:1074600084A9FFF7A2B9DFF81480481C9DE500BF8E
:10747000CCB60008B8B60008E0B6000880B800082E
:10748000079AB2F90C3043F040039381FFF790B9AB
:10749000079B5B6EDB0707D4079B9B899F0503D483
:1074A000079B986DFCF77CFD4FF0FF330893FFF7C7
:1074B00087B9DFF8308050E4DDE904A30A9356E78A
:1074C0000B9B617853F8042B04460B9342EAE2735A
:1074D0000593FFF77FB8079A938943F040039381A0
:1074E000FFF75DB970B80008F0B54FF4806400266E
:1074F000ADF26C4D1AADCDE905461F460646009526
:10750000049515468B8916A823F00203ADF80C30BC
:107510004B6E02941993CB890C46ADF80E30CB69B3
:1075200007934B6A0993FCF735FD2A463B466946AB
:107530003046FEF7E5FF051E07DB6946304600F0E2
:1075400007F9002818BF4FF0FF35BDF80C305B0677
:1075500003D5A38943F04003A3811698FCF71CFDD3
:1075600028460DF26C4DF0BD70B500293FD006469F
:107570000C4610B1436B002B3CD0636EB4F90C2069
:10758000DD0732D4900538D52146304600F04CF85E
:10759000E36A054633B13046E16998470028B8BF31
:1075A0004FF0FF35A3891A0639D4216B41B104F19C
:1075B0004003994202D03046FCF760FD002323636C
:1075C000616C21B13046FCF759FD00236364FCF780
:1075D000B3FA0022636EA281DB071CD5A06DFCF715
:1075E000DBFCFCF7AFFA284670BD002ACCD10025A1
:1075F000284670BDFCF782FABFE7A06DFCF7CEFC11
:10760000B4F90C30002BBFD1636ED907EFD4A06D55
:10761000FCF7C6FCEBE7A06DFCF7C2FCDEE73046EA
:107620002169FCF72BFDC0E7B1F90C20F8B516076E
:107630000C46074648D4496842F400630029A381F8
:107640005FDDA56A002D3DD0002112F480523E6816
:107650003960E16961D101233846A847451C0246DB
:107660006AD0B4F90C30A56AE169580705D563689A
:10767000D21A236B0BB1E36BD21A00233846A8470A
:10768000411C4CD13968B4F90C301D293FD82F4A20
:10769000CA40D2073BD5002262602269DD04226025
:1076A00023F40062A28101D5002943D0216B3E6002
:1076B00041B104F14003994202D03846FCF7DEFCA8
:1076C000002323630020F8BD0E69002EFAD0920734
:1076D00018BF00230D6808BF4B690E60AD1B8B609F
:1076E0000CE02B463246D4F824C03846E169E04726
:1076F000B0F1000CA5EB0C05664406DD002DF0DCB6
:10770000E0E7E16B00299CDCDCE7B4F90C3043F0E6
:1077100040034FF0FF30A381F8BD226DA5E70022A2
:10772000B4F90C3062602269226023F40062DB0449
:10773000A281BBD52065B9E73B68002B91D01D2BFA
:1077400001D0162BE1D13E60BCE700BF0100402014
:1077500038B505460C4608B1436B03B3B4F90C00C9
:1077600088B1636EDB0701D481050FD52846214619
:10777000FFF75AFF636E0546DA0702D4A3899B051B
:1077800008D5284638BD0546284638BDA06DFCF70B
:1077900005FCEBE7A06DFCF703FC284638BDFCF7C1
:1077A000ADF9DBE79368002B00F0F0802DE9F04F96
:1077B000B1F90CC090461CF0080F81460C4683B00E
:1077C0002BD00B694BB31CF00207D8F8006032D005
:1077D0004FF0000A5546D4F824B0E169AB4FC5B16B
:1077E000BD422B46524628BF3B464846D847002854
:1077F00040F3C280D8F8083082441B1A2D1AC8F80A
:107800000830002B00F0AE80D4F824B0E169002DE0
:10781000E6D1D6E900A50836E1E72146484600F062
:10782000D5F9002840F0AD80B4F90CC0D8F800605C
:107830001CF00207CCD11CF0010A63D15746236823
:10784000A16818468B46002F58D01CF4007F00F02A
:10785000B180B9420A4600F2DD801CF4906F2FD04F
:10786000216962695D1A02EB420202EBD2726B1C63
:1078700052103B44934292BF93469B461A461CF4D7
:10788000806F00F0E68011464846FCF7FBFC0028BC
:1078900000F0F5802A4621690190F9F7C1F9A28923
:1078A000019B22F4906242F08002A2815819C4F830
:1078B00014B0ABEB05053A46BB462361A5602060DA
:1078C0003D4600275146019200F050FAA168236816
:1078D000019AA1EB0B011A44A1602260D8F808308C
:1078E000AA445B1BC8F80830002B3BD02368A16872
:1078F00018468B46B4F90CC0002FA6D1D6E900A7D4
:1079000008369EE73846BB463D46002D40D000284D
:1079100045D03A46D4E904C32068AA4228BF2A4683
:107920006045A16804D901EB030A524500F3828047
:10793000934272DC5A464846E169D4F824C0E047D5
:10794000B0F1000A18DDB7EB0A070FD00120D8F814
:107950000830D344A3EB0A03A5EB0A05C8F80830A6
:10796000002BD2D1002003B0BDE8F08F214648465D
:10797000FFF7EEFE0028EAD0B4F90C3043F04003E4
:10798000A3814FF0FF3003B0BDE8F08F00207047B7
:10799000756833460836002DFAD0D3F800B02A4671
:1079A0000A21584600F0FAFA002865D00130A0EB11
:1079B0000B07AEE722699A4214D36569BD4211D81C
:1079C0006FF00043BB4228BF3B4693FBF5F35246A2
:1079D00005FB03F34846656AE169A847051ECBDD50
:1079E0007F1B7BE7B94228BF39460D4618465146F2
:1079F0002A4600F0BBF9A1682368491B2B44A1600B
:107A000023600029ECD121464846FFF7A1FE00285B
:107A1000E6D0B1E7BB463A4652E75946019200F03C
:107A2000A5F9019AA36892469B1AA36023681344A0
:107A3000236088E75946524600F098F923682146AA
:107A4000534448462360FFF783FE00283FF47BAF92
:107A500092E7484601F04CFF034600287FF426AF2A
:107A600048462169FCF70AFB0C22B4F90C30C9F82E
:107A7000002023F0800381E76A1C17464AE70C22A6
:107A8000B4F90C30C9F8002078E700BF00FCFF7F94
:107A90002DE9F041B1F90C300C46990796B008D5A4
:107AA000012204F14303C4E90432236016B0BDE8A7
:107AB000F081B4F90E100646002926DB6A4600F074
:107AC00013FA00281FDB019D4FF4806805F4704510
:107AD000A5F50055B5FA85F54FF400676D094146E7
:107AE0003046FCF7CFFBE8B1B4F90C30C4F8148091
:107AF00043F0800320602061A3813DBB3B43A38111
:107B000016B0BDE8F081B4F90C3013F0800519D03F
:107B10004FF040080025414630462F46FCF7B2FBA7
:107B20000028E1D1B4F90C309A05BFD4012123F02B
:107B3000030304F1430243F00203C4E90421A381D7
:107B40002260B3E74FF480682F46C8E73046B4F9A7
:107B50000E1000F0DDF910B9B4F90C30CEE7A389AE
:107B600023F0030343F001031BB2C7E770B50C46D3
:107B7000B1F90E10154600291E4696B014DB6A4670
:107B800000F0B2F900280FDB01994FF4806301F493
:107B90007041A1F50051B1FA81F14FF4006049093B
:107BA00031602B6016B070BDA18911F0800106D044
:107BB00000214023084631602B6016B070BD4FF4A1
:107BC0008063084631602B6016B070BD38B52F4B0E
:107BD00005461B680C4613B15A6B002A4BD0B4F90A
:107BE0000C3018071CD5226922B313F0010107D00D
:107BF00000206169A0604942A1613AB1002038BD0E
:107C0000980758BF6169A160002AF7D1190658BFCB
:107C10001046F4D543F04003A3814FF0FF3038BD48
:107C2000D9062CD55A0712D4226943F00803A38140
:107C3000002ADAD103F42071B1F5007FD5D02146B6
:107C40002846FFF725FFB4F90C302269CDE7216BF8
:107C500051B104F14002914204D02846FCF70EFADB
:107C6000B4F90C30002222630021226923F024039E
:107C7000C4E90021D9E71846FBF740FFAFE7092226
:107C800043F040032A60A381C7E700BF2000002023
:107C900070B582B006460D46144600F01BF9012867
:107CA00002D16B1EFE2B26D904F15C032A46304616
:107CB00001A901F0D1FF431C20D078B1A3689DF841
:107CC0000410013B002BA36004DAA269934208DB95
:107CD0000A2906D023685A1C22601970284602B06F
:107CE00070BD2246304601F0E9FF0130F6D14FF079
:107CF000FF3002B070BD8DF80450DFE7A3894FF06C
:107D0000FF3043F04003A381F3E700BF30B51446D2
:107D1000526E0546D007B4F90C3083B001D49A05F1
:107D20001CD5980406D4626E43F4005342F400520A
:107D3000A381626622462846FFF7AAFF636E0546C6
:107D4000DA0702D4A3899B0502D5284603B030BDCB
:107D5000A06DFCF725F9284603B030BDA06D019158
:107D6000FCF71CF9B4F90C300199DAE788420ED916
:107D70008B1883420BD900EB020C002A6DD06246AF
:107D800013F801CD994202F801CDF9D170470F2ABD
:107D90000FD8034602F1FF3C002A5ED00CF1010C23
:107DA000013B8C4411F8012B614503F8012FF9D1F7
:107DB000704740EA01039B0750D1A2F1100370B550
:107DC00001F1200C23F00F0501F1100E00F1100459
:107DD000AC441B095EF8105C0EF1100E44F8105C08
:107DE0005EF81C5C103444F81C5C5EF8185C44F8C7
:107DF000185C5EF8145CE64544F8145CEAD1013383
:107E000012F00C0F01EB031102F00F0400EB03134F
:107E100028D08E46043C24F003064FEA940C1E44FE
:107E20001C1F5EF8045B44F8045FB442F9D10CF106
:107E3000010402F0030203EB840301EB840102F16D
:107E4000FF3C4AB10CF1010C013B8C4411F8012BB1
:107E5000614503F8012FF9D170BD7047034602F167
:107E6000FF3C9BE72246EAE740EA01039B0710B587
:107E700024D1032A22D98E468446DEF8004071467A
:107E8000A4F1013323EA040313F0803F0EF1040E42
:107E900015D1043A032A4CF8044BEED8714601F18F
:107EA000FF3E52B163461EF8011F541E03F8011B2A
:107EB00041B122469C46002AF4D110BD844601F10E
:107EC000FF3EEEE79444002CF7D003F8011B634516
:107ED000FBD110BD014B93F82801704760050020CD
:107EE000004870475006002070B50026074D044634
:107EF000084611462E60FBF74FFD431C00D070BDB5
:107F00002B68002BFBD0236070BD00BF240900202C
:107F1000002238B5064D044608462A60FBF7EAFC05
:107F2000431C00D038BD2B68002BFBD0236038BD2C
:107F300024090020002238B5064D044608462A6070
:107F4000F9F7C8FA431C00D038BD2B68002BFBD0D2
:107F5000236038BD2409002038B5074D074C2C1B81
:107F6000A41005D0013C55F8043D9847002CF9D1E8
:107F7000BDE8384003F072BB94BC000890BC000818
:107F8000082802D14FF48050704708B5FBF7D4FFA2
:107F9000162203464FF0FF301A6008BD5FFA81FCDD
:107FA000810744D00346511E22B909E09A0709D03F
:107FB000013905D31846027801336245F6D170477E
:107FC00000207047184603290CD80029F8D0034632
:107FD000014401E08B42F3D0184613F8012B6245AF
:107FE000F8D1704710B50CEB0C24024604EB0444A6
:107FF00002E00439032915D9104652F8043B6340C6
:10800000A3F1013E2EEA030313F0803FF1D00346B3
:10801000014401E08B4208D0184613F8012B624559
:10802000F8D110BD10460029F1D1002010BD114635
:10803000C9E700BF20F0030110F00300C0F1000009
:1080400051F8043B00F1040C4FEACC0C6FF0000235
:108050001CBF22FA0CF213434FF0010C4CEA0C2C1B
:108060004CEA0C4CA3EB0C0222EA030212EACC12FB
:1080700004BF51F8043B0430F4D0C2F1000102EA1D
:108080000102B2FA82F2C2F11F0200EBD200704785
:10809000F8B50027DFF858C021F0004363450446D7
:1080A0000D46176021D8844653EA0C0C1DD0DFF82A
:1080B00044C0164601EA0C0C0A46BCF1000F09D177
:1080C00000220D4BF8F722FE6FF0350704460A46F2
:1080D00021F000431B156FF31E52A3F2FE333B4405
:1080E00042F07F55336045F4001520462946F8BD1F
:1080F000FFFFEF7F0000F07F000050432DE9F843C1
:108100001B4D0646286898460F469146FBF746FFEA
:10811000184B1C681CB3286865681F2D22DC4EB9FB
:108120006B1C0235636044F82570FBF739FF0020B3
:10813000BDE8F883012304EB8501C1F88890D4F8E9
:108140008821AB401A43022EC4F88821C1F8088167
:10815000E6D1D4F88C211A43C4F88C21E0E7064C10
:108160001C60D8E7FBF71CFF4FF0FF30E0E700BFD3
:1081700048010020340900206C0900202DE9F04F4F
:1081800003690C6985B0A342C0F291808146013C2D
:1081900001F1140509F1140855F8243058F824C0E9
:1081A00001339C45BCFBF3F64FEA840005EB8407E2
:1081B00008EB840243D34FF0000CAA46CDE9010539
:1081C000C646634665469346CDF80C805AF8040BC4
:1081D000DEF800201FFA80FC06FB0C554FEA104821
:1081E0004FEA154C06FB08CCADB290B2401B1844C8
:1081F0001FFA8CF3C3EB204303EB124380B240EA37
:10820000034057454EF8040B4FEA1C454FEA234301
:10821000DCD2DDE90105DDF80C8058F8003073B9D7
:10822000ABF10402904504D307E0904504F1FF341C
:1082300003D252F80439002BF7D0C9F81040484651
:1082400001F01CFA00282EDB4146002255F8040BF1
:10825000D1F800C01FFA80FE1FFA8CF3A3EB0E03C7
:108260001344020CC2EB234202EB1C429BB243EAD2
:108270000243AF4241F8043B4FEA2242E6D258F8AB
:10828000242008EB84036AB9043B434504D807E083
:10829000984504F1FF3403D253F80429002AF7D09B
:1082A000C9F810400136304605B0BDE8F08F002017
:1082B00005B0BDE8F08F00BF2DE9F04F16461F4610
:1082C000816B9DB0CDE90667299D039049B10123DB
:1082D000C26B044693408B604A6000F073FF00233A
:1082E000A363B7F10009B4BF012300232B60784BCF
:1082F000BCBF29F00049CDF81C9033EA090300F017
:10830000AD80DDE906341846214600220023CDE980
:108310000401F8F70FF9804668B10123289A136029
:108320002A9B13B16B4B2A9A13606B4B08930898E6
:108330001DB0BDE8F08F1AAB01931BAB00930398FF
:10834000DDE9042301F076FA5FEA1955824640F030
:108350009B80DDE91A85454405F23243202B40F32A
:108360008B83C3F1400309FA03F905F2124326FA9D
:1083700003F349EA0300F8F70DF80123013D1193D7
:10838000A1F1F8710022554BF7F7C6FE4AA3D3E9D5
:108390000023F8F7BBFC4AA3D3E90023F7F7BEFE9E
:1083A000064628460F46F8F705F847A3D3E9002309
:1083B000F8F7ACFC02460B4630463946F7F7AEFEFE
:1083C00006460F46F8F7CAFE00220446099000232D
:1083D00030463946F8F7B8F8002840F02383099C66
:1083E000A8EB050808F1FF33162C0A9300F28F81E1
:1083F000DDE904013A4B03EBC403D3E90023F8F7AA
:10840000A3F8002872D0631E09930023109308F18B
:10841000FF33002BC0F2828100230B93099B002BBA
:108420006ADA099B0B9A0E93D21A5B420F930023D0
:108430000993269B0B92092B68D8052B40F32183C7
:108440000025043B2693269B023B032B00F23F862C
:10845000DFE813F070046D046404480442F20F7303
:10846000289AC9F3130959EA060913601CD12A9BFB
:10847000002B00F04C861B4B089308332A9A08986F
:1084800013601DB0BDE8F08FDDE90412C2F31303E1
:10849000084643F07F51CDF84480A5F2FF35DDF862
:1084A000688041F440116DE72A9B002B40F0F58372
:1084B0000D4B08933BE700BF61436F63A787D23F33
:1084C000B3C8608B288AC63FFB799F501344D33FC3
:1084D0000000F07FE9B60008E8B600080000F83FA9
:1084E000C8B8000834B7000840B70008B8F1000F5A
:1084F00040F3A88410900B90DDE9092313440A93FC
:1085000000230F93269B0E92092B96D90023012559
:108510004FF0FF3B269327930C950021039BCDF84A
:1085200060B0D963039800F027FE0890002800F09F
:10853000D785039B089ABBF10E0F9A6300F219814D
:10854000002D00F016810E99002940F34984B44BA8
:1085500001F00F0203EBC203C8054FEA2115D3E96E
:10856000006740F10A84DDE90401AE4B4FF00309D6
:10857000D3E90823F8F7F4FCCDE9120105F00F0563
:108580008DB1DFF8A082E90709D5D8E9002330468C
:108590003946F8F7BBFB06460F4609F101096D1095
:1085A00008F10808EFD1DDE912013B463246F8F741
:1085B000D7FC07468846109B43B100223846414607
:1085C000994BF7F7C1FF002840F010854846F7F7B0
:1085D000F1FE3A464346F8F799FB0022934BF7F732
:1085E0009DFD0446A1F15075BBF1000F00F0AA807B
:1085F0000E9BCDF848B0199341463846F8F7AEFDCA
:108600001299874BCDE9144503EBC10353E90234BA
:108610000546CDE91634F7F7CDFE0B460246414636
:108620003846F7F779FD089F0C9B30357E1CECB27D
:10863000804689463546002B00F06E84DDE916231E
:1086400000207B49F8F78CFCDDE91423F7F764FD83
:108650003C7042464B4604460D46F7F793FF002810
:1086600040F0BB84CDF850A0CDF858B00027AB4601
:10867000A246129D2AE00137AF4280F201855046A2
:10868000594600226B4BF8F741FB0022694B8246AA
:108690008B4640464946F8F739FB89468046F8F74D
:1086A0005DFD0446F7F786FE02460B464046494606
:1086B000F7F732FD303452465B4606F8014B8046F0
:1086C0008946F7F741FF002840F0D78442464B46E1
:1086D00000205549F7F720FD52465B46F7F734FF77
:1086E0000028C8D0199B3746DDF850A0089A03F13E
:1086F000010802E0974200F09F843E4617F8013DD2
:10870000392BF7D00133DBB245463B7079E10123C9
:10871000109308F1FF33002BBFF67EAEC8F10103C2
:108720000B9300230A9379E64846F7F743FE3A464F
:108730004346F8F7EBFA00223C4BF7F7EFFC044610
:10874000A1F15075384600223B4B4146F7F7E4FC57
:1087500022462B4606460F46F7F714FF002840F046
:108760007A8430463946224605F10043F7F7ECFE9D
:1087700028BB1B9B002BC0F291800E9A0E2A00F39F
:108780008D80274B0E9A03EBC203D3E90034CDE969
:108790000634279B002B19DABBF1000F16DC0ED133
:1087A000DDE906010022244BF8F7B0FA02460B4639
:1087B000DDE90401F7F7D2FE002800F04C84002325
:1087C0001F46089E0493279BDD432DE2089B5D1CFA
:1087D000DDE90678DDE904013A464346F8F7C0FBD7
:1087E000F8F7BCFC0646F7F7E5FD3A464346F8F7CE
:1087F0008DFA02460B46DDE90401F7F78DFC089A75
:1088000006F13003BBF1010F2F46137000F02583F2
:108810000125CDF810A0A846DDE9069A2CE000BF9E
:10882000C8B80008A0B800080000F03F00001C40D5
:108830000000E03F00002440000014404A46534638
:1088400020462946F8F78CFBF8F788FC0646F7F730
:10885000B1FD4A465346F8F759FA08F101080B46AC
:10886000024629462046F7F757FC06F13003D84563
:1088700007F8013B00F0EF820022834BF8F746FA3D
:108880000022002304460D46F7F754FE0028D5D0F9
:108890000E9D3E46DDF810A00135B2E00C9A002A8C
:1088A00040F0D68000231F460F9E0B9D0C9365B1B0
:1088B0000A9900290B4608DDA942A8BF2B460B9A4E
:1088C000ED1AD21ACB1A0B920A930F9B53B10C9B41
:1088D00013B1002E40F0FC8251460F9A039800F02D
:1088E000FDFD82460121039800F018FD099B0490CC
:1088F000002B40F0BD81269B012B40F3D38101204A
:108900000A9A104410F01F0000F09980C0F1200373
:10891000042B40F3E2810B9BC0F11C000344024492
:108920000B9305440A920B9B002B05DD51461A461A
:10893000039800F02DFE82460A9B002B05DDDDE941
:1089400003011A4600F024FE0490109B002B40F017
:108950007481BBF1000F40F34B810C9B002B40F066
:10896000A2800E9D01350126DDE90394DDF820800B
:1089700007E0514600230A22484600F02DFC8246BB
:10898000013621465046FFF7F9FBB34500F13000B0
:1089900008F8010BEDDCBBF1000FCCBF5E460126F1
:1089A00081460024089B03EB060B514601220398E5
:1089B00000F0EEFD0499824600F060FE002840F3CE
:1089C000F081089A02E0934500F005821BF8013C13
:1089D0005E46392B0BF1FF3BF5D001338BF80030AD
:1089E000DDE90381404600F0EDFB57B12CB1BC42FC
:1089F00003D02146404600F0E5FB3946039800F0DD
:108A0000E1FB5146039800F0DDFB00233370289B07
:108A10001D602A9B002B3FF48AAC08981E601DB095
:108A2000BDE8F08F2046F7F7C5FC32463B46F7F726
:108A300081FD00287FF4D3AC631E0993CFE41C238F
:108A40000B9A1D441A440B920A9A1A440A926AE736
:108A5000269A012A40F3B0810F9B0BF1FF36B342F7
:108A6000C0F26B81BBF1000FA3EB060680F2F78228
:108A70000B9BA3EB0B056EE1C3F1200306FA03F099
:108A800079E40125DFE400BF0000244039460023DB
:108A90000A22039800F0A0FB189B0746002B40F326
:108AA00007839B460E96002D05DD39462A4603981E
:108AB00000F06EFD0746099B002B40F0ED81B846A3
:108AC000089B1E46013B03EB0B04069B03F00103CE
:108AD000CDE90A43039C04995046FFF74FFB394602
:108AE0008346504600F0CAFD04990546424620469A
:108AF00000F0E4FDC36801460BF13009ABBB0990FF
:108B0000504600F0BBFD09990990204600F05AFB41
:108B1000099A002A54D1269B1BB90B9B002B00F00D
:108B2000B582002D3FDBB3460A9B0BF8019B9E42AA
:108B300000F0C981514600230A22204600F04CFB78
:108B40004745824639464FF000034FF00A0220465F
:108B500030D000F041FB414600230A220746204660
:108B600000F03AFB5E468046B5E7039800F02AFB2A
:108B7000002D06DB069B03F00102269B1D432A43C2
:108B800029D151460122039800F002FD0499824642
:108B900000F074FD002840F3F880B9F1390F00F0BF
:108BA00050820BF131090E9D3C460135474606F8CF
:108BB000019B15E700F010FB5E46074680468AE7FA
:108BC000002DC0F29B82269B1D430B9B1D4300F092
:108BD0009582002AA7DDB9F1390F00F032820E9D8F
:108BE00009F101033C460135474606F8013BF7E62B
:108BF000269B022B7FF7B1AEBBF1000F40F029811D
:108C00005B4605220499039800F0E6FA01460490B9
:108C1000504600F033FD002840F31B8131230E9DA8
:108C2000089E013506F8013BDDE9030100F0CAFAB0
:108C30000135002F7FF4E1AEE3E65046049900F0E1
:108C40001DFD0028BFF685AE514600230A22039879
:108C50000E9C00F0C1FA0C9B8246661E002B7FF42E
:108C600015AF189B002B40F318829B460E9D7AE6A9
:108C700001461A46039800F031FC269B0490012B14
:108C80006FDD00230993049A136902EB83031869CB
:108C900000F0F4FAC0F1200032E69B4B0893033356
:108CA000FFF7ECBB069B002B7FF429AEDDE9061233
:108CB000C2F31303002B7FF422AE944B134033B165
:108CC0000B9B01330B930A9B01330A930123099AEF
:108CD0000993002A3FF413AED5E73FF424AEC0F168
:108CE0003C03ADE601230C93279B0E9A134403F13A
:108CF000010B5E46012EB8BF01261893172E40F3D4
:108D00000182012204235B0003F11400B0421146EA
:108D100002F10102F7D9039BD96303E401230C9309
:108D2000279B002B38DD9B461E461893E6E7002361
:108D30000C93D9E700230C93F2E70F9B0F96F31ADD
:108D40000026099A1A440A9B09925B440A930B9BDA
:108D50001D465B440B930121039800F0DFFA0746A0
:108D6000A5E5069B002B8CD1DDE90601C1F31303B9
:108D70000A46002BA1D0099085E7DDE904344FF0C5
:108D80000209CDE91234FFF7FBBB7FF40CAF19F0F9
:108D9000010F7FF402AF06E701239B462793FFF7FD
:108DA000BCBB03D119F0010F7FF40BAE5E461BF87C
:108DB000013D302BFAD013E6119A002A00F09F8073
:108DC00003F233430A9A0F9E1A440A920B9A1546ED
:108DD0001A440B92BFE73123089A01351370FFE55F
:108DE00000F0FE80DDE904010E9A494B554205F082
:108DF0000F0203EBC203D3E90023F7F787FF2D111E
:108E0000CDE9120100F05D8100234FF00209074611
:108E10008846404EEA070AD5D6E90023384641463F
:108E2000F7F774FF01230746884609F101096D1021
:108E300006F10806EED1002B7FF4BDABDDE9127818
:108E4000FFF7B9BBC8F101030A900B931090FFF72D
:108E500053BB089EB7E4DDF810A002460B46F7F7B7
:108E60005DF903460C46DDE906010E9D1A46CDE983
:108E7000043401352346A846F7F766FB40B9DDE91F
:108E80000423DDE90601F7F755FB18B1F30701D517
:108E9000089A32E43E46B4E50398796800F06CF92C
:108EA0000546002800F023813B6907F10C010233DD
:108EB0009A000C30F7F7B4FE01222946039800F01F
:108EC00067FB8046FCE50E9D3C46013547466CE558
:108ED000039C39463246204600F000FB07465246C6
:108EE0003946204600F048FA51468246204600F0B6
:108EF00069F90F9B9B1B0F933FF4F4ACECE41A9BB6
:108F0000C3F136035EE700BF40B700080000F07F02
:108F1000C8B80008A0B80008DDE91623DDE914018F
:108F2000F7F7F4FE089BCDE90C011C70129B012B96
:108F300000F0C580129F089B11961F4400227C4BB5
:108F400040464946F7F7E2FE0D460446F8F706F9B3
:108F50008146F7F72FFA02460B4620462946F7F7D7
:108F6000DBF809F1300906F8019BBE4280468946CC
:108F7000E4D1119D0022DDE90C016E4BF7F7CEF82C
:108F800002460B4640464946F7F7FCFA00286ED1E8
:108F9000DDE90C2300206749F7F7BEF802460B46CF
:108FA00040464946F7F7D0FA80B91B9B002BFFF6E5
:108FB00079AC0E9B0E2B3FF775AC5F4B0E9A03EB13
:108FC000C203D3E90034CDE9063401E417F8013CCB
:108FD0003E46302B07F1FF37F8D0199D013510E5DB
:108FE0004FF00209DDE90478FFF7E5BABBF1000FA5
:108FF0003FF49AAB189C002C7FF7BBAB0E9B384616
:10900000013B414600221993494BF7F77FFE024688
:109010008846174609F10100F7F7CCF93A4643466E
:10902000F7F774FE0022454BF7F778F81294A1F198
:1090300050750446FFF7E0BA312308F10108FFF745
:1090400063BBB34639230E9D3C46089A474601351B
:109050000BF8013BBAE400231F460493DEE50A9BAC
:109060005B440A930B9B1D465B440B9373E6199B71
:10907000089A03F10108FFF740BBDDF850A0ACE708
:10908000DDF850A0DDF858B0FFF773BBB9F1390F28
:10909000D7D0002D3FF785AD85E5269B022B03DC5D
:1090A0000E9DDDF860B05EE4DDF860B00E96A3E5DD
:1090B000269B022BF8DCDDF860B00E96F3E4374611
:1090C00058E74FF00209DDE91278FFF774BA00257E
:1090D000039B29461846DD6300F04EF80890D0B98E
:1090E000002240F2AF11164B164800F03DFE02463A
:1090F00040F2EF21124B134800F036FE002A3FF7F2
:1091000040AD50E50021039BD963FFF70BBA0E4B2E
:109110000893FFF70CB9039B089A4FF0FF3B9A6343
:1091200001232795CDF860B00C93FFF722BB00BF59
:10913000000024400000E03FC8B8000800001C40C8
:1091400044B7000858B7000834B7000882B049B1E6
:109150005AB16BB113780B601278101E18BF012042
:1091600002B0704701A9002AF3D1104602B070473F
:109170006FF00100F4E700BF38B5436C05460C46BC
:109180004BB153F8240080B1026843F82420002337
:10919000C0E9033338BD2122042100F005FE034657
:1091A00068640028EDD1002038BD0121284601FA6D
:1091B00004F56A1D920000F0F7FD0028F3D0C0E925
:1091C0000145E4E731B1436C4A6853F82200086076
:1091D00043F82210704700BF2DE9F0414FF0000E18
:1091E0000E461C460D69074601F1140001680EF198
:1091F000010E8BB202FB0343090C4FEA134C02FB36
:1092000001CC9BB203EB0C43754540F8043B4FEA9D
:109210001C44EBDC3CB1B368AB4207DD06EB8503D5
:1092200001355C6135613046BDE8F08171683846D2
:109230000131FFF7A1FF8046A8B1326906F10C01A8
:10924000023292000C30F7F7EBFC7B6C726853F83B
:109250002210316043F82260464606EB8503013553
:109260005C613561DFE70246BA21024B024800F03B
:109270007BFD00BF44B70008B4B70008B0F5803FDD
:1092800003463ABF102083400020B3F1807F3CBFEB
:109290001B020830B3F1805F3CBF1B010430B3F107
:1092A000804F03D3002B06DB013070479B0003D4B3
:1092B0005B0003D4202070470230704703307047B2
:1092C0000368014613F0070209D0DA0721D4980792
:1092D0004BBF5B089B08012002200B60704798B2CF
:1092E000A0B11046DAB20AB908301B0A1A0704BF47
:1092F0001B0904309A0704BF9B080230DA0703D425
:109300005B0800F1010006D00B6070471020C340DD
:10931000E8E7002070472020704700BF38B5436C55
:1093200004460D464BB15868B0B102685A6000223D
:1093300001234561C0E9032338BD2122042100F047
:1093400033FD034660640028EDD1002240F2451150
:10935000074B084800F008FD1C220121204600F0C0
:1093600023FD0028F1D001220223C0E90123DEE71A
:1093700044B70008B4B700082DE9F04FD1F81080C9
:1093800015690E46A845924685B005DB2A46534628
:1093900045468A4690461E46DAF80830DAF8041048
:1093A00005EB0804A342B8BF0131FFF7E5FE002832
:1093B00000F0898000F1140707EB840E774505D291
:1093C0003B46002243F8042B9E45FBD8143606EB9F
:1093D00088080AF11409464509EB850566D2A5EB14
:1093E0000A03153B23F003030AF1150A043355451C
:1093F0002CBF9B464FF0040BCDF808E08246AE46EA
:10940000039405E0090C2AD1B04507F104074AD9B5
:1094100056F8041B8DB2002DF4D0CC463C460023F8
:1094200001965CF8040B216886B28AB205FB06221D
:10943000000C090C05FB00111A4401EB124192B219
:1094400042EA0142E64544F8042B4FEA1143E8D8CA
:10945000019E47F80B3056F8041C090CD4D00022AA
:109460003B6848461D463C46944602889BB201FB39
:1094700002C202EB154243EA024344F8043B50F8AF
:10948000043B25684FEA134CABB201FB0C3370452B
:1094900003EB12434FEA134CE7D3B04547F80B30C8
:1094A00007F10407B4D8DDE902E45046002C02DCE1
:1094B00005E0013C03D05EF8043D002BF9D00461C7
:1094C00005B0BDE8F08F02464FF4B171014B024880
:1094D00000F04AFC44B70008B4B7000812F00303D8
:1094E0002DE9F041144607462CD10E46A4101CD09D
:1094F0003D6C85B3E3074FF0000806D4641014D028
:109500002868A8B10546E307F8D52A46314638460B
:10951000FFF732FF36B17B6C716853F8212032605F
:1095200043F8216064100646EAD13046BDE8F08178
:109530002A4629463846FFF71FFF28600546C0F82F
:109540000080E0E70F4A013B52F823200023FFF799
:1095500043FE0646CAE701213846FFF70DFE0546E1
:1095600040B140F271230122C0E904230023386492
:109570000360BFE7024640F24511034B034800F089
:10958000F3FB00BF90B8000844B70008B4B7000868
:109590002DE9F0470C462769A36807EB62177D1C8D
:1095A0009D429046064649684FEA621904DD5B0019
:1095B0009D4201F10101FADC3046FFF7DDFD002894
:1095C00051D0B9F1000F00F114010FDD0B464FF03F
:1095D000000C09F105024FEA820E00EB820243F80B
:1095E00004CB9342FBD1AEF114031944226904F178
:1095F000140318F01F0803EB820C2CD08E464FF09A
:10960000000AC8F120091A6802FA08F242EA0A02BE
:109610004EF8042B53F8042B9C4522FA09FAF2D891
:10962000ACEB0403153B23F00303043304F11502F0
:10963000944538BF042341F803A0BAF1000F00D1CC
:109640003D46736C6268056153F82210216043F84F
:109650002240BDE8F087043953F8042B9C4541F8BB
:10966000042FF9D8ECE702464FF4EF71014B0248A2
:1096700000F07AFB44B70008B4B7000884460B69D1
:109680000069C01A15D10CF1140C14310CEB8302D3
:1096900010B401EB830301E0944508D252F8044D65
:1096A00053F8041D8C42F7D004D24FF0FF3010BCA9
:1096B00070477047012010BC704700BF2DE9F04F84
:1096C00014460A6923698846D21A002A83B040F0FA
:1096D000888001F1140604F1140202EB830206EB08
:1096E000830301E09E427FD253F8045D52F8041DCB
:1096F0008D42F7D076D323460025444698466168CC
:10970000FFF73AFD002800F0898000F1140949466E
:109710004FF0000C2769D8F8106004F1140B08F121
:10972000140EC56004F110020EEB86060BEB870ADF
:10973000CDF804B05EF8044B52F8045F1FFA84FBC6
:10974000ABB2A3EB0B03240C6344C4EB154404EB52
:1097500023449BB243EA0443764541F8043B4FEA75
:10976000244CE7D808F115018E4234BF00210121B5
:10977000A6EB0806153EB608002906F101024FEADD
:10978000820208BF0422DDF804B00BEB0204A245FC
:109790004A4434D915462146E04651F8046BB3B229
:1097A00063444FEA164E0EEB234E06EB08039BB2C2
:1097B00043EA0E438A454FEA2E4C45F8043BEBD86A
:1097C0000AF1FF3AAAEB040A2AF0030A524423B929
:1097D00052F8043D013F002BFAD0076103B0BDE809
:1097E000F08F88DA01258AE70021FFF7C5FC70B108
:1097F00001220023C0E9042303B0BDE8F08F002953
:109800004FEA860608BF002609EB0602DFE702469C
:1098100040F23721054B064800F0A6FA024640F216
:109820004521024B024800F09FFA00BF44B70008F0
:10983000B4B70008F0B5012183B016461F46FFF704
:109840009BFC0546002847D0C7F30A54C7F313030F
:109850000CB143F48013002E019314D101A8FFF73B
:109860002FFD0122019B20306B612A6114B3089BFC
:10987000A4F2334404441C60099BC0F13500186015
:10988000284603B0F0BD68460096FFF719FD019B1E
:1098900000B30099C0F1200203FA02F2C340019321
:1098A0000A43002B6A610CBF01220222AB612A61CC
:1098B000002CDCD105EB8201A0F232430869089943
:1098C0000B60FFF7DBFC099BC0EB421018602846D9
:1098D00003B0F0BD009AE4E7024640F20F31024BBC
:1098E000024800F041FA00BF44B70008B4B70008CE
:1098F0002DE9F84F1646002900F096800C46804668
:1099000006F10B05FAF772FF54F8041C162DA4F1AA
:10991000080921F0030758D81025AE4258D8AF42A5
:1099200060DABF4B09EB070C9A68DCF8040062456B
:1099300000F0908020F0010363445B68DB0768D48B
:1099400020F003003B189D4247DDCB0712D454F8AA
:10995000083CA9EB030BDBF8043023F003021044AE
:1099600000EB070A554540F3F68007EB020A554520
:1099700040F3CC8031464046FAF784FC0646002886
:1099800000F0218154F8043CA0F1080223F0010307
:109990004B44934200F0B4803A1F242A00F2D7804F
:1099A000132A00F2A280034622461168196051680A
:1099B000596092689A6021464046FAF75FFB40463C
:1099C000FAF71AFF3046BDE8F88F35F00705A4D541
:1099D0000C23C8F80030002618E01F46DCE90223FB
:1099E000D3609A60D9F804307A1B0F2A03F0010380
:1099F00009EB07001DD83B43C9F80430436843F026
:109A0000010343604046FAF7F7FE26463046BDE8BC
:109A1000F88FC907AED454F8083CA9EB030BDBF868
:109A2000043023F00302A0E71146BDE8F84FFAF72F
:109A300029BC2B4309EB050142F00102C9F80430AF
:109A40004A604368083143F0010343604046FAF737
:109A500015FBD7E720F00300C21905F1100C624591
:109A600080F29280CA0785D454F8082CA9EB020B27
:109A7000DBF8042022F00302104400EB070AD4456F
:109A80003FF773AF5E46DBF80C1056F8080F3A1F2D
:109A9000242AC160886000F2B080132A40F2AB80B3
:109AA00021681B2ACBF808106168CBF80C1000F273
:109AB000AA8008340BF110022168116061685160BE
:109AC000A1689160AAEB05020BEB050142F00102CF
:109AD00099604A60DBF80430404603F001032B43F1
:109AE000CBF80430FAF788FE90E723681B2A03605E
:109AF000636843603DD804F1080200F1080354E7AD
:109B000050F8043C23F003031F446BE75E463A1F02
:109B1000DBF80C3056F8081F242ACB60996023D854
:109B2000132A1FD923681B2ACBF808306368CBF8A7
:109B30000C303CD808340BF1100322681A606268BC
:109B40005A60A2689A6034465746D9464AE7214689
:109B5000FEF70CF92FE7DCE902135E46CB603A1FF3
:109B60009960D5E73346E8E721463046FEF7FEF830
:109B7000E9E7A368242A8360E368C36027D004F17F
:109B8000100200F1100310E7521B09EB050142F02F
:109B9000010299604A6054F8043C404603F0010316
:109BA0002B4344F8043CFAF727FE26462EE7A36829
:109BB000242ACBF81030E368CBF8143010D01034DE
:109BC0000BF11803B9E74046FAF716FE03E72369DD
:109BD00004F1180203616369436100F11803E4E6CC
:109BE00023691834CBF8183054F8043CCBF81C30F7
:109BF0000BF12003A1E732465EE721463046FEF72F
:109C0000B5F8074B5EE7A168242ACBF81010E1688D
:109C1000CBF8141006D010340BF118024CE700BF3B
:109C20005801002022691834CBF8182054F8042C6D
:109C3000CBF81C200BF120023EE700BF034649B1E0
:109C4000FF2A02D801200A7070478A224FF0FF30A5
:109C50001A6070470846704770B5054684B05BB11E
:109C60001C460F4BD3F8E060234669B12846B04745
:109C7000431C0FD004B070BD094B00F58274D3F8BB
:109C8000E06023460029F1D10A46284601A9B047E1
:109C9000431CEFD100228A2322602B6004B070BDE8
:109CA0006005002010B51C4682B0049B009401930F
:109CB0004FF0FF3300F024F902B010BDF8B50646AE
:109CC0000D46144610B1436B002B4AD0B4F90C205A
:109CD000A3691007A3601BD52369CBB1EDB2910432
:109CE0002F4621D522686169D31A994228DD0133B4
:109CF000A1680139A160511C2160157062699A4206
:109D000026D0A389DB0701D50A2D21D03846F8BD1E
:109D100021463046FDF75AFF00BBB4F90C20EDB2E6
:109D200091042F462369DDD442F40052A281626E71
:109D3000616922F4005262662268D31A9942D6DC25
:109D400021463046FDF704FD40B901232268CFE7E4
:109D500021463046FDF7FCFC0028D7D04FF0FF37F6
:109D6000D4E7F9F7CBFEB1E7144600B51A460A4B23
:109D70000D461B6885B0DE6803464CB1074901916A
:109D8000304607490294009500F0CCF800F0DEF868
:109D900004490C46F3E700BF2000002010B800087B
:109DA00020B800081CB8000838B5A1FB021454BB49
:109DB000FAF768FA054650B350F8042C22F0030273
:109DC000043A242A10D8132A13D91B2AC0E90044C4
:109DD00016D9242AC0E902440ABFC0E9044400F1AC
:109DE000100200F1180205E02146FAF701F82846B2
:109DF00038BD024600232846C2E90033936038BDCF
:109E000000F10802F6E7FAF797F80C230360002543
:109E1000284638BD2DE9F04F89B08646DDE9137A32
:109E20001E46002F53D01568002955D0129B002BD9
:109E300062D0741E2EB30026CDE900E1DDF848B0F3
:109E4000043D029103920AE0019BF3B928680028BF
:109E500031D0DC4552D2013C631C664611D0D7E9B3
:109E6000009855F8042F3B460098DAF8E0C005A9A1
:109E7000E047421C34D000EB060CDC45E4D9C7E9CE
:109E80000098304609B0BDE8F08F00280CDD029B39
:109E900005A918445A1E00F1FF3E11F8013B02F8D3
:109EA000013F7245F9D10290039B28681A68043279
:109EB0001A600028CDD10199039A01B110600CF10C
:109EC000FF36002230463A6009B0BDE8F08F1568D1
:109ED00000F586770029A9D14FF0FF331293A8E748
:109EE00006468A2100223046DDF800E0CEF8001058
:109EF0003A6009B0BDE8F08F129EC2E76646C0E73F
:109F000010B584B00698054C00900798019004485D
:109F100000680294FFF77EFF04B010BD60050020CA
:109F2000200000200EB400B5074A82B003AB014602
:109F3000106853F8042B0193FCF7E2FA02B05DF8C5
:109F400004EB03B0704700BF20000020062008B5D6
:109F500000F004F80120F7F7B7FA00BF38B5144B4A
:109F60001F281D681ED8D5F81821044662B152F882
:109F700020304BB1012B05D0591C0FD0002142F8E5
:109F800020109847002038BD284600F027F82246C8
:109F900001462846BDE8384000F00CB816230120E1
:109FA0002B6038BD16234FF0FF302B6038BD00BF4B
:109FB0002000002070B50026074D044608461146D3
:109FC0002E60F7F779FA431C00D070BD2B68002B88
:109FD000FBD0236070BD00BF24090020F7F76ABAE8
:109FE0002DE9F8438046894614461D4600F092FA52
:109FF000224606460F46404649462B46F7F798F854
:10A0000030B92046294600220023F6F793FA18B902
:10A0100030463946BDE8F883F9F78EFF0022002369
:10A020002121016010461946F6F79AFF06460F46B1
:10A0300030463946BDE8F8831F4A21F00043934279
:10A040001BD930B51D4A87B0934205D902460B464D
:10A05000F6F762F807B030BD02AA00F0D9FB00F0B5
:10A060000300012817D002280BD0E0B9DDE9042352
:10A07000DDE9020100F070F8ECE70022002300F0B7
:10A080006BB8DDE90423DDE9020100F065F801F1B8
:10A09000004107B030BD0090DDE90423DDE9020195
:10A0A00000F082F9F3E70124DDE90423DDE9020190
:10A0B000009400F079F9CDE7FB21E93FFFFFEF7F46
:10A0C00030B5224A21F00043934287B01BD9204A81
:10A0D000934205D902460B46F6F71EF807B030BD8D
:10A0E00002AA00F095FB00F0030001281FD002280F
:10A0F00011D018BBDDE90423DDE90201012400943D
:10A1000000F052F9EAE7002400220023009400F056
:10A110004BF907B030BD0124DDE90423DDE902017C
:10A12000009400F041F901F1004107B030BDDDE9D4
:10A130000423DDE9020100F00FF8CFE7DDE9042395
:10A14000DDE9020100F008F8EDE700BFFB21E93F7F
:10A15000FFFFEF7F000000002DE9F04F21F00048E5
:10A16000B8F1795F06460F4692469B4685B06DD2A0
:10A17000F6F7F4FF002800F0ED8032463B4630460B
:10A180003946F6F7C3FD76A3D3E9002304460D460E
:10A19000F6F7BCFD74A3D3E90023F5F7BFFF224611
:10A1A0002B46F6F7B3FD72A3D3E90023F5F7B4FF0E
:10A1B00022462B46F6F7AAFD6FA3D3E90023F5F755
:10A1C000ADFF22462B46F6F7A1FD6DA3D3E9002390
:10A1D000F5F7A2FF22462B46F6F798FD6AA3D3E9CE
:10A1E0000023F5F79BFF22462B46F6F78FFDCDE9BE
:10A1F0000001002220462946654BF6F787FDDDE980
:10A2000000238046894620462946F6F77FFD4446CE
:10A210004D468046894652465B4630463946F6F7FB
:10A2200075FD02460B4640464946F5F775FF024666
:10A230000B4620462946F5F76FFF02460B460020E5
:10A240005449F5F769FF05B0BDE8F08F02460B46AB
:10A25000F6F75CFD42A3D3E9002304460D46F6F76A
:10A2600055FD41A3D3E90023F5F758FF22462B46BD
:10A27000F6F74CFD3EA3D3E90023F5F74DFF224648
:10A280002B46F6F743FD3CA3D3E90023F5F746FF41
:10A2900022462B46F6F73AFD39A3D3E90023F5F71A
:10A2A0003BFF22462B46F6F731FD37A3D3E90023C7
:10A2B000F5F734FF2B462246F6F728FD364BCDE95D
:10A2C0000001984595D9354B002298453AD8A8F514
:10A2D000001300202F4990469946F5F71DFFCDE960
:10A2E0000201002220462946294BF6F70FFD42467F
:10A2F0004B46F5F711FFDDE90023804689462046ED
:10A300002946F6F703FD44464D46804689465246A7
:10A310005B4630463946F6F7F9FC02460B464046A6
:10A320004946F5F7F9FE02460B4620462946F5F761
:10A33000F3FE02460B46DDE90201F5F7EDFE05B03E
:10A34000BDE8F08F164B4FF00008CDE90223DFF88F
:10A350005490C6E700200F4905B0BDE8F08F00BF5C
:10A36000D43888BEE9FAA8BDC4B1B4BD9EEE213E82
:10A37000AD529C804F7E923E9015CB19A001FA3EC3
:10A380007751C1166CC1563F4C5555555555A53F93
:10A390000000E03F0000F03F3233D33F0000E93FD0
:10A3A0000000E73F0000D23F2DE9F04F83B0CDE938
:10A3B000002321F00043B3F1795F04460D4604D237
:10A3C000F6F7CCFE002800F0858022462B4620467A
:10A3D0002946F6F79BFC06460F4632463B4620468A
:10A3E0002946F6F793FC3EA3D3E9002382468B4629
:10A3F00030463946F6F78AFC3BA3D3E90023F5F74C
:10A400008BFE32463B46F6F781FC39A3D3E90023A5
:10A41000F5F784FE32463B46F6F778FC36A3D3E9DF
:10A420000023F5F779FE32463B46F6F76FFC34A37E
:10A43000D3E90023F5F772FE0C9B804689469BB357
:10A44000DDE900010022324BF6F760FC42464B4644
:10A450008046894650465946F6F758FC02460B4658
:10A4600040464946F5F758FE32463B46F6F74EFC65
:10A47000DDE90023F5F750FE23A3D3E900230646C8
:10A480000F4650465946F6F741FC02460B46304609
:10A490003946F5F743FE02460B4620462946F5F7B6
:10A4A0003BFE03B0BDE8F08F02460B46304639460E
:10A4B000F6F72CFC14A3D3E90023F5F72DFE524642
:10A4C0005B46F6F723FC22462B46F5F727FE03B042
:10A4D000BDE8F08F2046294603B0BDE8F08F00BFED
:10A4E0007CD5CF5A3AD9E53DEB9C2B8AE6E55A3E1E
:10A4F0007DFEB157E31DC73ED561C119A0012A3FBA
:10A50000A6F810111111813F495555555555C53FB4
:10A510000000E03F2DE9F04723F000480D4652EAE5
:10A520000801044646D0B34925F0004A8A45A946A9
:10A5300040D85042B04E40EA020148EAD171B142DF
:10A54000964637D8C2451F46214605F0004C3BDCF5
:10A55000C0F28180A2427ED800F0B380354243D160
:10A56000BAF1000F32D1002C234640F32381A34AD5
:10A570005B00002B02F1FF32FADC9F4B3B40002BCB
:10A5800040F09180B8F1000F40F0DB80BEF1000F89
:10A5900073466BDC994E9A48801A1F2800F3EB80B3
:10A5A00002F21E4321FA03F30AFA00FA43EA0A030D
:10A5B000814068E020462946F6F7A8FB02460B4694
:10A5C000F6F7CEFCBDE8F08735420DD18C4A4FEA54
:10A5D000CA235B00002B02F1FF32CEDD5B00002BB3
:10A5E00002F1FF32F5DCC8E7834B4FEA2A523B40C9
:10A5F000A2F2FF3293B34FEA2850C9F31303A0F23B
:10A60000FF3643F48013A1EB0E00C7F3130545F4A6
:10A610008015921B0BD163E0013858D4A1EB0E04D6
:10A62000E30F013A03EB40034FEA440156D0714572
:10A63000A3EB0500F0D30028A1EB0E0447DB50EAA2
:10A640000403EDD16F4B4FEADC7C03EBCC03D3E981
:10A650000001BDE8F08720462946B3E7B8F1000FB6
:10A660006FD1BEF1000F734640F3AF80634E5B00C5
:10A67000002B06F1FF36FADC614B9A428BDBC9F303
:10A68000130343F480135E4CA41B1F2C4ADC06F218
:10A690001E452EFA05F508FA04F00EFA04FE0543ED
:10A6A000A1EB0E00B5E7564C4FEA2858A41A1F2C10
:10A6B000A8F2FF366EDD544B9B1A01FA03F300211A
:10A6C000A3E7504B03EB1C73D3E900017AE7C80FF3
:10A6D000013A00EB43034FEA4101A8D1A1EB0E0080
:10A6E0005A1B8E4588BF02F1FF32002ABCBF0846C4
:10A6F0001A4652EA000305D1A4E7C30F03EB420256
:10A700004000013EB2F5801FF7DB3D4B9E4221DB4E
:10A71000A2F5801206F2FF3642EA0C0242EA065522
:10A7200029464FE7384D921BA5EB06050EFA05F5B5
:10A7300018BF4FF0000E7FF47AAF08465A1BD4E7DB
:10A740002E4A2F4E4FEAC8235B00002B06F1FF363E
:10A75000FADC91E79B1B142B13DC06F21E41D84058
:10A7600002FA01F142FA03F343EA0C0C41EA000257
:10A770006146104626E7244B9B1A01FA03F3002199
:10A7800081E71F2B12DC06F21E4120FA03F38A40F8
:10A790001A43EDE702F21E4321FA03F30AFA04FA20
:10A7A00043EA0A03A140A1EB0E002EE7164B9B1BC8
:10A7B0001A41DDE7104B3B407BB14FEA28500F4A6E
:10A7C000A0F2FF36E30A6105EDE7C9F313030B2599
:10A7D00015240A4E43F480135BE7B8F1000FAFD1A4
:10A7E000BEF1000F1346054A3FF740AF152016464D
:10A7F000D6E600BFFFFFEF7F0000F07FEDFBFFFF1D
:10A8000002FCFFFF98BA0008E2FBFFFF0000000017
:10A810002DE9F04F844B21F000459D42804689464A
:10A8200014468FB040F28A80804B0E469D4228D855
:10A8300073A3D3E90023002940F39D81F5F76CFC55
:10A840007B4B06469D420F4600F089806EA3D3E9FC
:10A850000023F5F761FC02460B46304639461646A2
:10A860001F46F5F759FC68A3D3E90023F5F754FC1C
:10A87000C4E900670127C4E9020138460FB0BDE80A
:10A88000F08F6C4B9D4240F284806B4B9D425DD8B3
:10A890002F15A7F21647A5EB07518946F6F75EFC80
:10A8A000F5F788FD02460B4640464946CDE90823A8
:10A8B000F5F732FC0022614BF6F728FA894680460C
:10A8C000F6F74CFCF5F776FD02460B464046494646
:10A8D000CDE90A23F5F720FC0022584BF6F716FACB
:10A8E00003254FF000084FF00009CDE90C010DF1F0
:10A8F000380A42467AE902014B46AB46013DF5F77C
:10A9000019FE0028F5D102254D493A4601915B46D2
:10A91000214608A8009500F085F9002E0746ACDA1C
:10A9200060682268E16800F10043C4E90023A2687E
:10A9300001F10043C4E902237F429EE70022002385
:10A94000C4E90089C4E90223002796E702460B46C2
:10A95000F5F7E2FBC4E90201C4E90001F4E72CA326
:10A96000D3E90023F5F7D8FB2BA3D3E900238046D6
:10A970008946F5F7D1FB06460F4632463B46404630
:10A980004946F5F7C9FB24A3D3E90023F5F7C4FB37
:10A990006EE700F043F922A3D3E9002380468946FD
:10A9A000F6F7B4F90022274BF5F7B8FBF6F7D6FB1C
:10A9B0000746F5F7FFFC02460B46CDE9042310A33A
:10A9C000D3E90023F6F7A2F902460B464046494672
:10A9D000F5F7A2FB0CA3D3E9002382468B46DDE901
:10A9E0000401F6F793F91F2FCDE902012EDC164B77
:10A9F0007A1E53F82230AB4228D002460B4699E02B
:10AA000000004054FB21F93F3163621A61B4D03D2C
:10AA10000000601A61B4D03D7370032E8A19A33B05
:10AA200083C8C96D305FE43FFB21E93F7BD9024019
:10AA3000FB21F93FFB213941FFFFEF7F000070410F
:10AA400028BB00080000E03FA8BA0008DDE90223A7
:10AA500050465946F5F760FB2B150793C1F30A538F
:10AA6000C3EB1553102B8046894669DD60A3D3E9FB
:10AA70000023DDE90401F6F749F98046894642469C
:10AA80004B4650465946F5F747FB02460B465046A3
:10AA9000594692469B46F5F73FFB42464B46F5F733
:10AAA0003BFB55A3D3E9002380468946DDE9040139
:10AAB000F6F72CF942464B46F5F72EFB02460B46BD
:10AAC00050465946CDE90223F5F726FB079AC1F314
:10AAD0000A53D31A312B8046894631DD48A3D3E986
:10AAE0000023DDE90401F6F711F980468946424664
:10AAF0004B4650465946F5F70FFB02460B4650466B
:10AB0000594692469B46F5F707FB42464B46F5F7FA
:10AB100003FB3DA3D3E9002380468946DDE9040118
:10AB2000F6F7F4F842464B46F5F7F6FA02460B46BE
:10AB3000CDE9022350465946F5F7EEFA804689469C
:10AB400042464B4650465946C4E90089F5F7E4FAB7
:10AB5000DDE90223F5F7E0FA002EC4E90201BFF6B1
:10AB60008CAE09F10042C4E9008201F10042C4E95F
:10AB700002027F4281E6F5F7D1FA274B06469D4255
:10AB80000F4618D022A3D3E90023F5F7C7FA0246EF
:10AB90000B463046394616461F46F5F7BDFA1CA34C
:10ABA000D3E90023F5F7BAFAC4E90067C4E9020162
:10ABB0004FF0FF3761E60EA3D3E90023F5F7AEFAB5
:10ABC0000DA3D3E9002380468946F5F7A7FA064688
:10ABD0000F4632463B4640464946F5F79DFA06A3E6
:10ABE000D3E90023F5F79AFADEE700BFAFF3008060
:10ABF0000000601A61B4D03D7370032E8A19A33B24
:10AC00000000002E8A19A33BC14920259A837B3975
:10AC10003163621A61B4D03DFB21F93F21F000435A
:10AC2000194670472DE9F04FADF51B7DBD4CA49D35
:10AC30009C4654F82540013B12F1140F81460594BF
:10AC40000C910393C0F2A882B749D31E81FB030184
:10AC5000DB17C3EBA10307930133A3EB8303DB00F3
:10AC6000D318079A0D930CF1FF33D61A059A12EBFD
:10AC700003081CD408F1010800240025E346DDF890
:10AC800094A2B04422AF08E05AF82600F5F792FBF0
:10AC900001364645E7E8020108D0002EF4DA2046E6
:10ACA000294601364645E7E80201F6D1DC46059B18
:10ACB000002BA9F108030493B8BF4FEACC0637DB99
:10ACC000DDF80C9003EBCC084B460DF5E47BD94640
:10ACD0009B4622AA02EBCC0A059A4FEACC066244B4
:10ACE0000192CDF808C00696039B002BC0F29A8112
:10ACF000574600240025049E77E90223F6E9020165
:10AD0000F6F704F802460B4620462946F5F706FA00
:10AD1000464504460D46EFD1019B0BF1010B9B45C7
:10AD2000E9E802450AF1080ADED1DDF808C0069E0E
:10AD3000059A049B934603EB060A0EAB03EB8203D2
:10AD4000043B08930EAB03EB8206CDE909A60D9FE9
:10AD5000CDF82CC09AAB4FEACB0203EBCB03BBF18F
:10AD6000000F019253E928452BDD0DF5E47A0DF132
:10AD700038090AEB0208029700226C4B204629464C
:10AD8000F5F7C4FFF6F7EAF9F5F714FB0022684B74
:10AD900006460F46F5F7BAFF02460B4620462946FF
:10ADA000F5F7BAF9F6F7DAF978E9022349F8040B6E
:10ADB00039463046F5F7B2F9D04504460D46DBD1A9
:10ADC000029F204629463A4600F03EFB00224FF003
:10ADD0007F5304460D46F5F799FF00F0B5FB0022BE
:10ADE000544BF5F793FF02460B4620462946F5F7EC
:10ADF00093F90D460446F6F7B1F90646F5F7DAFA87
:10AE000002460B4620462946F5F786F9002F804674
:10AE1000894640F391800BF1FF300EAB53F82030A0
:10AE2000C7F1180243FA02F101FA02F29B1A0EAAC4
:10AE300042F82030C7F1170243FA02F5002D0E4404
:10AE400000F3D8800022002340464946F5F772FB04
:10AE5000002800F05282059B9B450DDD00220EABC1
:10AE60000A9803EB8B0353F8041D834242EA010264
:10AE7000F9D1002A40F0D980059B0EAA013B52F877
:10AE80002330002B40F0CA800123089A52F8041D99
:10AE900001330029FAD05B440BF1010807990B9AA2
:10AEA00008EB010A0AF1804AA5990AF1FF3A5A44CF
:10AEB000019E01EB8A0A22A901EBC209DDF824B048
:10AEC00072AA164402930697CDF804A0019B53F88A
:10AED000040F0193F5F76EFA039BE9E80201002BDA
:10AEE0001DDBCA4600240025049F7AE90223F7E906
:10AEF0000201F5F70BFF02460B4620462946F5F7FF
:10AF00000DF95F4504460D46EFD1029B08F101089B
:10AF10004345E6E90245D9DA9B46069F1AE7002435
:10AF20000025F2E770BC0008ABAAAA2A0000703E18
:10AF3000000070410000204053D10BF1FF330EAAF6
:10AF400052F82350ED15002D7FF77CAFBBF1000FB9
:10AF500006F1010640F3418200220EAB53F8044B88
:10AF6000002C3AD0C4F180746FF07F4043F8044C59
:10AF700003E01968411A43F8041B01329345F8DCD9
:10AF80000124002F0DDD012F3DD0022F09D10BF13F
:10AF9000FF320EAB53F822300EA9C3F3150341F86C
:10AFA0002230022D7FF44EAF42464B4600208F499F
:10AFB000F5F7B2F880468946002C3FF443AF3A4695
:10AFC00000208A4900F040FA02460B4640464946B6
:10AFD000F5F7A2F88046894634E701329345BDDC97
:10AFE000CFE70022824BF5F7C3FA002840F0C28079
:10AFF000054627E7BBF1000FD8BF002406F1010684
:10B00000AADC012FC1D10BF1FF320EAB53F8223075
:10B010000EA9C3F3160341F82230C2E70BF1010871
:10B0200043463BE70024002576E60D9B0BF1FF34F9
:10B03000A3F118020EAB53F82430069604950D9236
:10B0400063B90BF18043013B0EA901EB830353F875
:10B05000041D013C183A0029F9D00D9200200D9AE8
:10B06000624900F0F1F9002C06460F46C0F2C1819A
:10B0700004F1010A4FEACA024FF0000893460EABF2
:10B0800003EB8A05DFF86C9172AB03EBCA0A55F843
:10B09000040DF5F78FF932463B46F5F737FE4B4680
:10B0A0006AE90201424630463946F5F72FFE0EABFB
:10B0B0009D4206460F46EAD15A464FF00009ABF1D1
:10B0C00008034AA972A800EB030AA3460B46CDE980
:10B0D00007425246CA46DDF814900391B9F1000FB9
:10B0E000C0F281809046002600240025CDE901327F
:10B0F000414F01E0564510DCF7E90223F8E8020170
:10B10000F5F704FE02460B4620462946F5F706F8F9
:10B110000136B14504460D46ECDADDE901320BF1AA
:10B12000FF3BBBF1FF3FE3E802450AF1010AA2F150
:10B130000802D3D1DDE90742A49B022B5EDC002B81
:10B140002FDC10D100200021039DAC1874E90223EC
:10B15000F4F7E4FFAC42F9D1049B002B40F03981B5
:10B160000C9BC3E90001069B03F007000DF51B7D56
:10B17000BDE8F08FBBF1000FC8BF022506F1010644
:10B180003FF7EAAE42464B4600201849F4F7C4FFA9
:10B1900002258046894655E600216FF01703079186
:10B1A0005EE5039B0026002798469D18304675E90A
:10B1B00002233946F4F7B2FF454506460F46F5D15E
:10B1C0000B460246DDE94A01F4F7A6FF049B002B7B
:10B1D00000F0E2800C9D07F10042C5E90062002CFE
:10B1E00040F0DE80E8E00024002598E70000F03F12
:10B1F0000000E03F0000703E28BC0008A49B032B29
:10B20000B1D1002C00F00581039B4FEAC40803EB89
:10B21000C405A946D5E9006701950294059559E949
:10B2200002453046394622462B46F4F777FFB246B0
:10B23000BB4606460F4632463B4620462946F4F7B3
:10B240006BFF5B465246F4F769FFC9E9000169E903
:10B250000267039B9945E2D1029C059D012C00F0F9
:10B26000D880D5E90045039BDDF8049003F1080B75
:10B27000CDF80480D84659E902672046294632466F
:10B280003B46F4F74BFFA246AB4604460D4622462A
:10B290002B4630463946F4F73FFF52465B46F4F7FB
:10B2A0003DFFC9E9000169E90245C845E3D1002035
:10B2B0000021DDF80480039B08F108041C4403F11D
:10B2C000100574E90223F4F729FFA542F9D1DDE95D
:10B2D0004A56039BD3E90278049B002B46D10C9B72
:10B2E000C3E90401C3E90056C3E90278069B03F0F1
:10B2F00007000DF51B7DBDE8F08F06960D9E4046BC
:10B3000049467242049500F09FF800224B4B5F467D
:10B3100080468946F5F72CF9F8B10022484B4046A3
:10B320004946F5F7F3FCF5F719FF0546F5F742F83E
:10B330000022424BF5F7EAFC0B46024649464046DE
:10B34000F4F7EAFEF5F70AFF7C1C0EAB183643F85B
:10B350002B000D9643F8245080E640464946F5F709
:10B36000FDFE0EAB5C4643F82B0077E60C9B2C46AB
:10B3700006F100455D601D461C6008F10043C5E90B
:10B380000273069B01F10042C5E9040203F00700C5
:10B390000DF51B7DBDE8F08F0C9BC3E9006774B110
:10B3A0000125DDF80C800135F8E90223F4F7B6FE3B
:10B3B000AC42F8DA049B13B101F1004319460C9B2F
:10B3C000C3E90201069B03F007000DF51B7DBDE8F4
:10B3D000F08F01F100431946C2E6022D7FF432AD31
:10B3E00002460B4600201749F4F796FE8046894630
:10B3F00028E5A49B022B06DC002B0DDC7FF4B3AE0A
:10B4000000200021A8E6A49B032B7FF4ACAE4AAB3E
:10B410000393002000215AE7049BDDE94A0133B180
:10B4200000224FF000430C9CC4E90023C4E7002233
:10B4300000230C9CC4E90023C1E700BF0000704159
:10B440000000703E0000F03F2DE9F0411646C1F3C8
:10B450000A52074688460B466ABB21F00043034365
:10B4600027D0334B0022F5F751FC324B07469E4262
:10B4700088463CDB0B46C1F30A52363A4CF2503157
:10B480008E4221DC164440F2FE7296421CDC002EF5
:10B4900026DC16F1350F31DB23F0FF4121F4E0010A
:10B4A000363641EA0655002238462946224BF5F742
:10B4B0002DFCBDE8F08140F2FF7C6245DED1024602
:10B4C000F4F72CFEBDE8F081454615A3D3E900232F
:10B4D00063F31E0529461948F5F718FCBDE8F0810D
:10B4E0006FF31E53384643EA0651BDE8F0810EA3C0
:10B4F000D3E90023F5F70AFCBDE8F08108F0004429
:10B5000044F0D27141F4B73107A3D3E900230C48CA
:10B5100041F01F01F5F7FAFBCBE700BFAFF3008066
:10B520009C7500883CE4377E59F3F8C21F6EA50174
:10B5300000005043B03CFFFF0000903C9C75008829
:10B5400059F3F8C200000000C1F30A5C2DE9F04194
:10B55000ACF2FF35132D02460B460C46064632DC94
:10B56000002D20DBDFF8E0800F4648FA05F801EAFD
:10B57000080C5CEA000C2BD031A3D3E90023F4F7CC
:10B58000CDFD00220023F4F7FDFF40B1002C03DACB
:10B590004FF480132B411F44002627EA080421465C
:10B5A0003046BDE8F08126A3D3E90023F4F7B6FDC9
:10B5B00000220023F4F7E6FF0028F0D0002C27DB60
:10B5C00000263446EBE7332D06DDB5F5806F1CD041
:10B5D00010461946BDE8F0814FF0FF37ACF2134C2E
:10B5E00027FA0CF70742F3D015A3D3E90023F4F7A9
:10B5F00095FD00220023F4F7C5FF0028CFD0002CD2
:10B6000033460CDB23EA0706C9E7F4F787FDE1E7D9
:10B6100024F0004426430DD14FF00044BFE7142D21
:10B6200006D00122C5F13405AA401344B342E9D241
:10B630000134E7E70026054CB1E700BFAFF3008017
:10B640009C7500883CE4377EFFFF0F000000F0BFD0
:10B65000F8B500BFF8BC08BC9E467047F8B500BFFF
:08B66000F8BC08BC9E467047CF
:10B6680000000000010203040000000000000000C8
:10B678000102030406070809010200000203040589
:10B68800060708090A0B0C0D0E0F101055613A2514
:10B698002E32662C252E32662C252E32660D0A0097
:10B6A800494E4600696E66004E414E006E616E005E
:10B6B8003031323334353637383961626364656620
:10B6C80000000000303132333435363738394142E2
:10B6D8004344454600000000286E756C6C29000044
:10B6E800300000002E0000004C435F434F4C4C419B
:10B6F800544500004C435F43545950450000000036
:10B708004C435F4D4F4E4554415259004C435F4E98
:10B71800554D4552494300004C435F54494D45003F
:10B728004C435F4D4553534147455300496E666945
:10B738006E697479000000004E614E0042616C6CC5
:10B748006F6320737563636565646564000000005A
:10B758002F646174612F6A656E6B696E732F776FE2
:10B76800726B73706163652F474E552D746F6F6CE4
:10B77800636861696E2F61726D2D31332F73726347
:10B788002F6E65776C69622D63796777696E2F6EA6
:10B7980065776C69622F6C6962632F7374646C6976
:10B7A800622F64746F612E63000000002F6461745F
:10B7B800612F6A656E6B696E732F776F726B73702A
:10B7C8006163652F474E552D746F6F6C63686169AF
:10B7D8006E2F61726D2D31332F7372632F6E657703
:10B7E8006C69622D63796777696E2F6E65776C690E
:10B7F800622F6C6962632F7374646C69622F6D7059
:10B808007265632E630000002C2066756E63746990
:10B818006F6E3A2000000000617373657274696F7F
:10B828006E2022257322206661696C65643A206661
:10B83800696C6520222573222C206C696E65202591
:10B8480064257325730A00003030303030303030D2
:10B858003030303030303030202020202020202060
:10B868002020202020202020303030303030303050
:10B878003030303030303030202020202020202040
:10B888002020202020202020050000001900000092
:10B898007D000000000000000080E03779C34143CC
:10B8A800176E05B5B5B89346F5F93FE9034F384D1E
:10B8B800321D30F94877825A3CBF737FDD4F1575CA
:10B8C800000000000000F03F0000000000002440DD
:10B8D80000000000000059400000000000408F40B8
:10B8E800000000000088C34000000000006AF84023
:10B8F8000000000080842E4100000000D012634147
:10B908000000000084D797410000000065CDCD41BC
:10B91800000000205FA00242000000E8764837429D
:10B92800000000A2941A6D42000040E59C30A2423B
:10B938000000901EC4BCD64200003426F56B0C43B0
:10B948000080E03779C3414300A0D8855734764357
:10B9580000C84E676DC1AB43003D9160E458E143B8
:10B96800408CB5781DAF154450EFE2D6E41A4B442D
:10B9780092D54D06CFF08044F64AE1C7022DB54472
:10B98800B49DD9794378EA44002020202020202043
:10B998002020282828282820202020202020202077
:10B9A8002020202020202020208810101010101087
:10B9B80010101010101010101004040404040404D3
:10B9C800040404101010101010104141414141416D
:10B9D800010101010101010101010101010101014F
:10B9E800010101011010101010104242424242425F
:10B9F800020202020202020202020202020202021F
:10BA080002020202101010102000000000000000C6
:10BA1800000000000000000000000000000000001E
:10BA2800000000000000000000000000000000000E
:10BA380000000000000000000000000000000000FE
:10BA480000000000000000000000000000000000EE
:10BA580000000000000000000000000000000000DE
:10BA680000000000000000000000000000000000CE
:10BA780000000000000000000000000000000000BE
:10BA880000000000000000000000000000000000AE
:10BA9800000000000000000000000000000000801E
:10BAA800FB21F93FFB2109407CD91240FB211940B9
:10BAB8007A6A1F407CD92240BBFD2540FB212940E2
:10BAC8003A462C407A6A2F405C4731407CD9324054
:10BAD8009C6B3440BBFD3540DB8F3740FB21394040
:10BAE8001BB43A403A463C405AD83D407A6A3F40F7
:10BAF8004C7E40405C4741406C1042407CD94240FB
:10BB08008CA243409C6B4440AC344540BBFD45404F
:10BB1800CBC64640DB8F4740EB584840FB214940A5
:10BB280083F9A200444E6E00FC291500D157270066
:10BB3800DD34F50062DBC0003C999500419043007C
:10BB48006351FE00BBDEAB00B761C5003A6E24004E
:10BB5800D24D42004906E00009EA2E001C92D100AD
:10BB6800EB1DFE0029B11C00E83EA700F535820058
:10BB780044BB2E009CE98400B4267000417E5F001F
:10BB8800D6913900538339009CF439008B5F8400C7
:10BB980028F9BD00F81F3B00DEFF97000F9805004D
:10BBA800112FEF000A5A8B006D1F6D00CF7E3600F3
:10BBB80009CB2700464FB7009E663F002DEA5F007D
:10BBC800BA277500E5EBC7003D7BF100F7390700A0
:10BBD80092528A00FB6BEA001FB15F00085D8D007E
:10BBE800300356007BFC4600F0AB6B0020BCCF0056
:10BBF80036F49A00E3A91D005E619100081BE60077
:10BC080085996500A0145F008D40680080D8FF000A
:10BC180027734D0006063100CA561500C9A87300DF
:10BC28007BE260006B8CC00000000040FB21F93F04
:10BC3800000000002D44743E000000809846F83C47
:10BC48000000006051CC783B00000080831BF03975
:10BC58000000004020257A38000000802282E33668
:10BC6800000000001DF36935020000000300000019
:08BC78000400000006000000BA
:08BC8000A04FFF7F010000004E
:08BC8800A53F00081512000899
:04BC9000ED110008AA
:10BC9400DB0FC9400024F400010000001000000084
:10BCA4009A9949410000000003000000E8070020C1
:10BCB400280000200000000000000000E807002029
:10BCC40050080020B8080020000000000000000018
:10BCD4000000000000000000000000000000000060
:10BCE4000000000000000000000000000000000050
:10BCF4000000000000000000000000000000000040
:10BD0400000000000000000000000000000000002F
:10BD1400000000000000000000000000000000001F
:10BD2400000000000000000000000000000000000F
:10BD340000000000000000000000000000000000FF
:10BD440000000000000000000000000000000000EF
:10BD540001000000000000000E33CDAB34126DE68C
:10BD6400ECDE05000B0000000000000000000000F5
:10BD740000000000000000000000000000000000BF
:10BD840000000000000000000000000000000000AF
:10BD9400000000000000000000000000000000009F
:10BDA400000000000000000000000000000000008F
:10BDB400000000000000000000000000000000007F
:10BDC400000000000000000000000000000000006F
:10BDD40000000000000000002C090020FFFFFFFF0E
:10BDE400000002000000000000000000000000004D
:10BDF400580100205801002060010020600100204B
:10BE040068010020680100207001002070010020FA
:10BE140078010020780100208001002080010020AA
:10BE2400880100208801002090010020900100205A
:10BE34009801002098010020A0010020A00100200A
:10BE4400A8010020A8010020B0010020B0010020BA
:10BE5400B8010020B8010020C0010020C00100206A
:10BE6400C8010020C8010020D0010020D00100201A
:10BE7400D8010020D8010020E0010020E0010020CA
:10BE8400E8010020E8010020F0010020F00100207A
:10BE9400F8010020F8010020000200200002002028
:10BEA40008020020080200201002002010020020D6
:10BEB4001802002018020020200200202002002086
:10BEC4002802002028020020300200203002002036
:10BED40038020020380200204002002040020020E6
:10BEE4004802002048020020500200205002002096
:10BEF4005802002058020020600200206002002046
:10BF040068020020680200207002002070020020F5
:10BF140078020020780200208002002080020020A5
:10BF24008802002088020020900200209002002055
:10BF34009802002098020020A0020020A002002005
:10BF4400A8020020A8020020B0020020B0020020B5
:10BF5400B8020020B8020020C0020020C002002065
:10BF6400C8020020C8020020D0020020D002002015
:10BF7400D8020020D8020020E0020020E0020020C5
:10BF8400E8020020E8020020F0020020F002002075
:10BF9400F8020020F8020020000300200003002023
:10BFA40008030020080300201003002010030020D1
:10BFB4001803002018030020200300202003002081
:10BFC4002803002028030020300300203003002031
:10BFD40038030020380300204003002040030020E1
:10BFE4004803002048030020500300205003002091
:10BFF4005803002058030020600300206003002041
:10C0040068030020680300207003002070030020F0
:10C0140078030020780300208003002080030020A0
:10C024008803002088030020900300209003002050
:10C034009803002098030020A0030020A003002000
:10C04400A8030020A8030020B0030020B0030020B0
:10C05400B8030020B8030020C0030020C003002060
:10C06400C8030020C8030020D0030020D003002010
:10C07400D8030020D8030020E0030020E0030020C0
:10C08400E8030020E8030020F0030020F003002070
:10C09400F8030020F803002000040020000400201E
:10C0A40008040020080400201004002010040020CC
:10C0B400180400201804002020040020200400207C
:10C0C400280400202804002030040020300400202C
:10C0D40038040020380400204004002040040020DC
:10C0E400480400204804002050040020500400208C
:10C0F400580400205804002060040020600400203C
:10C1040068040020680400207004002070040020EB
:10C11400780400207804002080040020800400209B
:10C12400880400208804002090040020900400204B
:10C134009804002098040020A0040020A0040020FB
:10C14400A8040020A8040020B0040020B0040020AB
:10C15400B8040020B8040020C0040020C00400205B
:10C16400C8040020C8040020D0040020D00400200B
:10C17400D8040020D8040020E0040020E0040020BB
:10C18400E8040020E8040020F0040020F00400206B
:10C19400F8040020F8040020000500200005002019
:10C1A40008050020080500201005002010050020C7
:10C1B4001805002018050020200500202005002077
:10C1C4002805002028050020300500203005002027
:10C1D40038050020380500204005002040050020D7
:10C1E4004805002048050020500500205005002087
:10C1F40043000000000000000000000000000000F8
:10C20400000000000000000000000000000000002A
:10C2140043000000000000000000000000000000D7
:10C22400000000000000000000000000000000000A
:10C2340043000000000000000000000000000000B7
:10C2440000000000000000000000000000000000EA
:10C254004300000000000000000000000000000097
:10C2640000000000000000000000000000000000CA
:10C274004300000000000000000000000000000077
:10C2840000000000000000000000000000000000AA
:10C294004300000000000000000000000000000057
:10C2A400000000000000000000000000000000008A
:10C2B4004300000000000000000000000000000037
:10C2C400000000000000000000000000000000006A
:10C2D4003D9C00084D9100080000000090B9000842
:10C2E400ECB600081CB800081CB800081CB800080C
:10C2F4001CB800081CB800081CB800081CB80008CA
:10C304001CB800081CB80008FFFFFFFFFFFFFFFF79
:10C31400FFFFFFFFFFFF00000100415343494900B5
:10C324000000000000000000000000000000000009
:10C334000000000000000000000041534349490090
:10C3440000000000000000000000000000000000E9
:0CC35400000000000000000000000000DD
:040000050800170DCB
:00000001FF
